{
  "contractName": "ArtX",
  "abi": [
    {
      "constant": true,
      "inputs": [],
      "name": "name",
      "outputs": [
        {
          "name": "",
          "type": "string"
        }
      ],
      "payable": false,
      "stateMutability": "view",
      "type": "function"
    },
    {
      "constant": true,
      "inputs": [
        {
          "name": "",
          "type": "address"
        }
      ],
      "name": "pIDxAddr_",
      "outputs": [
        {
          "name": "",
          "type": "uint256"
        }
      ],
      "payable": false,
      "stateMutability": "view",
      "type": "function"
    },
    {
      "constant": true,
      "inputs": [],
      "name": "airDropTracker_",
      "outputs": [
        {
          "name": "",
          "type": "uint256"
        }
      ],
      "payable": false,
      "stateMutability": "view",
      "type": "function"
    },
    {
      "constant": true,
      "inputs": [],
      "name": "initEth_",
      "outputs": [
        {
          "name": "",
          "type": "uint256"
        }
      ],
      "payable": false,
      "stateMutability": "view",
      "type": "function"
    },
    {
      "constant": true,
      "inputs": [
        {
          "name": "",
          "type": "uint256"
        },
        {
          "name": "",
          "type": "bytes32"
        }
      ],
      "name": "plyrNames_",
      "outputs": [
        {
          "name": "",
          "type": "bool"
        }
      ],
      "payable": false,
      "stateMutability": "view",
      "type": "function"
    },
    {
      "constant": true,
      "inputs": [
        {
          "name": "",
          "type": "bytes32"
        }
      ],
      "name": "pIDxName_",
      "outputs": [
        {
          "name": "",
          "type": "uint256"
        }
      ],
      "payable": false,
      "stateMutability": "view",
      "type": "function"
    },
    {
      "constant": true,
      "inputs": [
        {
          "name": "",
          "type": "uint256"
        }
      ],
      "name": "addressIndexes",
      "outputs": [
        {
          "name": "",
          "type": "address"
        }
      ],
      "payable": false,
      "stateMutability": "view",
      "type": "function"
    },
    {
      "constant": true,
      "inputs": [
        {
          "name": "",
          "type": "uint256"
        },
        {
          "name": "",
          "type": "uint256"
        }
      ],
      "name": "rndTmEth_",
      "outputs": [
        {
          "name": "",
          "type": "uint256"
        }
      ],
      "payable": false,
      "stateMutability": "view",
      "type": "function"
    },
    {
      "constant": true,
      "inputs": [],
      "name": "rID_",
      "outputs": [
        {
          "name": "",
          "type": "uint256"
        }
      ],
      "payable": false,
      "stateMutability": "view",
      "type": "function"
    },
    {
      "constant": true,
      "inputs": [
        {
          "name": "",
          "type": "address"
        }
      ],
      "name": "plyrs_",
      "outputs": [
        {
          "name": "addr",
          "type": "address"
        },
        {
          "name": "name",
          "type": "bytes32"
        },
        {
          "name": "win",
          "type": "uint256"
        },
        {
          "name": "gen",
          "type": "uint256"
        },
        {
          "name": "aff",
          "type": "uint256"
        },
        {
          "name": "lrnd",
          "type": "uint256"
        },
        {
          "name": "laff",
          "type": "uint256"
        },
        {
          "name": "mask",
          "type": "uint256"
        },
        {
          "name": "keys",
          "type": "uint256"
        },
        {
          "name": "referCode",
          "type": "string"
        },
        {
          "name": "artxshares",
          "type": "uint256"
        },
        {
          "name": "eth",
          "type": "uint256"
        }
      ],
      "payable": false,
      "stateMutability": "view",
      "type": "function"
    },
    {
      "constant": true,
      "inputs": [
        {
          "name": "",
          "type": "address"
        }
      ],
      "name": "winner_",
      "outputs": [
        {
          "name": "",
          "type": "bool"
        }
      ],
      "payable": false,
      "stateMutability": "view",
      "type": "function"
    },
    {
      "constant": true,
      "inputs": [],
      "name": "symbol",
      "outputs": [
        {
          "name": "",
          "type": "string"
        }
      ],
      "payable": false,
      "stateMutability": "view",
      "type": "function"
    },
    {
      "constant": true,
      "inputs": [],
      "name": "startTime_",
      "outputs": [
        {
          "name": "",
          "type": "uint256"
        }
      ],
      "payable": false,
      "stateMutability": "view",
      "type": "function"
    },
    {
      "constant": true,
      "inputs": [],
      "name": "activated_",
      "outputs": [
        {
          "name": "",
          "type": "bool"
        }
      ],
      "payable": false,
      "stateMutability": "view",
      "type": "function"
    },
    {
      "constant": true,
      "inputs": [],
      "name": "airDropPot_",
      "outputs": [
        {
          "name": "",
          "type": "uint256"
        }
      ],
      "payable": false,
      "stateMutability": "view",
      "type": "function"
    },
    {
      "constant": true,
      "inputs": [],
      "name": "getTimeLeft",
      "outputs": [
        {
          "name": "",
          "type": "uint256"
        }
      ],
      "payable": false,
      "stateMutability": "view",
      "type": "function"
    },
    {
      "constant": false,
      "inputs": [],
      "name": "activate",
      "outputs": [
        {
          "name": "",
          "type": "bool"
        }
      ],
      "payable": false,
      "stateMutability": "nonpayable",
      "type": "function"
    },
    {
      "constant": false,
      "inputs": [
        {
          "name": "_shares",
          "type": "uint256"
        }
      ],
      "name": "setshares",
      "outputs": [
        {
          "name": "",
          "type": "uint256"
        }
      ],
      "payable": false,
      "stateMutability": "nonpayable",
      "type": "function"
    },
    {
      "constant": false,
      "inputs": [],
      "name": "calculateAllocation",
      "outputs": [
        {
          "name": "",
          "type": "uint256"
        }
      ],
      "payable": false,
      "stateMutability": "nonpayable",
      "type": "function"
    },
    {
      "constant": false,
      "inputs": [],
      "name": "calculateCapDecay",
      "outputs": [
        {
          "name": "",
          "type": "uint256"
        }
      ],
      "payable": false,
      "stateMutability": "nonpayable",
      "type": "function"
    },
    {
      "constant": true,
      "inputs": [
        {
          "name": "_appraisal",
          "type": "uint256"
        }
      ],
      "name": "verifyappraisal",
      "outputs": [
        {
          "name": "",
          "type": "uint256"
        }
      ],
      "payable": false,
      "stateMutability": "pure",
      "type": "function"
    },
    {
      "constant": true,
      "inputs": [],
      "name": "calcUnMaskedEarnings",
      "outputs": [
        {
          "name": "",
          "type": "uint256"
        }
      ],
      "payable": false,
      "stateMutability": "view",
      "type": "function"
    },
    {
      "constant": true,
      "inputs": [],
      "name": "getPlayerSharesHelper",
      "outputs": [
        {
          "name": "",
          "type": "uint256"
        }
      ],
      "payable": false,
      "stateMutability": "view",
      "type": "function"
    },
    {
      "constant": true,
      "inputs": [],
      "name": "getBuyPrice",
      "outputs": [
        {
          "name": "",
          "type": "uint256"
        }
      ],
      "payable": false,
      "stateMutability": "view",
      "type": "function"
    },
    {
      "constant": false,
      "inputs": [
        {
          "name": "_addr",
          "type": "address"
        },
        {
          "name": "_eth",
          "type": "uint256"
        },
        {
          "name": "_affID",
          "type": "address"
        }
      ],
      "name": "coreNew",
      "outputs": [
        {
          "name": "",
          "type": "uint256"
        }
      ],
      "payable": false,
      "stateMutability": "nonpayable",
      "type": "function"
    },
    {
      "constant": false,
      "inputs": [
        {
          "name": "_addr",
          "type": "address"
        },
        {
          "name": "_eth",
          "type": "uint256"
        },
        {
          "name": "_affID",
          "type": "address"
        },
        {
          "components": [
            {
              "name": "compressedData",
              "type": "uint256"
            },
            {
              "name": "compressedIDs",
              "type": "uint256"
            },
            {
              "name": "winnerAddr",
              "type": "address"
            },
            {
              "name": "winnerName",
              "type": "bytes32"
            },
            {
              "name": "amountWon",
              "type": "uint256"
            },
            {
              "name": "newPot",
              "type": "uint256"
            },
            {
              "name": "genAmount",
              "type": "uint256"
            },
            {
              "name": "potAmount",
              "type": "uint256"
            }
          ],
          "name": "_eventData_",
          "type": "tuple"
        }
      ],
      "name": "distributeExternalNew",
      "outputs": [
        {
          "components": [
            {
              "name": "compressedData",
              "type": "uint256"
            },
            {
              "name": "compressedIDs",
              "type": "uint256"
            },
            {
              "name": "winnerAddr",
              "type": "address"
            },
            {
              "name": "winnerName",
              "type": "bytes32"
            },
            {
              "name": "amountWon",
              "type": "uint256"
            },
            {
              "name": "newPot",
              "type": "uint256"
            },
            {
              "name": "genAmount",
              "type": "uint256"
            },
            {
              "name": "potAmount",
              "type": "uint256"
            }
          ],
          "name": "",
          "type": "tuple"
        }
      ],
      "payable": false,
      "stateMutability": "nonpayable",
      "type": "function"
    },
    {
      "constant": false,
      "inputs": [
        {
          "name": "_addr",
          "type": "address"
        },
        {
          "name": "_eth",
          "type": "uint256"
        },
        {
          "name": "_keys",
          "type": "uint256"
        }
      ],
      "name": "distributeInternalNew",
      "outputs": [
        {
          "name": "",
          "type": "uint256"
        }
      ],
      "payable": false,
      "stateMutability": "nonpayable",
      "type": "function"
    },
    {
      "constant": false,
      "inputs": [
        {
          "name": "_addr",
          "type": "address"
        },
        {
          "name": "_gen",
          "type": "uint256"
        },
        {
          "name": "_keys",
          "type": "uint256"
        }
      ],
      "name": "updateMasksXAddr",
      "outputs": [
        {
          "name": "",
          "type": "uint256"
        }
      ],
      "payable": false,
      "stateMutability": "nonpayable",
      "type": "function"
    },
    {
      "constant": false,
      "inputs": [],
      "name": "setaddress",
      "outputs": [
        {
          "name": "",
          "type": "uint256"
        }
      ],
      "payable": false,
      "stateMutability": "nonpayable",
      "type": "function"
    },
    {
      "constant": true,
      "inputs": [
        {
          "name": "_addr",
          "type": "address"
        }
      ],
      "name": "calcUnMaskedEarningsXAddr",
      "outputs": [
        {
          "name": "",
          "type": "uint256"
        }
      ],
      "payable": false,
      "stateMutability": "view",
      "type": "function"
    },
    {
      "constant": true,
      "inputs": [
        {
          "name": "_eth",
          "type": "uint256"
        }
      ],
      "name": "calcKeysReceivedNew",
      "outputs": [
        {
          "name": "",
          "type": "uint256"
        }
      ],
      "payable": false,
      "stateMutability": "view",
      "type": "function"
    },
    {
      "constant": true,
      "inputs": [
        {
          "name": "time",
          "type": "uint256"
        }
      ],
      "name": "calculateEndEth",
      "outputs": [
        {
          "name": "",
          "type": "uint256"
        }
      ],
      "payable": false,
      "stateMutability": "view",
      "type": "function"
    },
    {
      "constant": false,
      "inputs": [],
      "name": "getWinner",
      "outputs": [
        {
          "name": "",
          "type": "address[]"
        }
      ],
      "payable": false,
      "stateMutability": "nonpayable",
      "type": "function"
    },
    {
      "constant": true,
      "inputs": [
        {
          "name": "_keys",
          "type": "uint256"
        }
      ],
      "name": "iWantXKeysNew",
      "outputs": [
        {
          "name": "",
          "type": "uint256"
        }
      ],
      "payable": false,
      "stateMutability": "view",
      "type": "function"
    },
    {
      "constant": false,
      "inputs": [
        {
          "name": "_artxshares",
          "type": "uint256"
        }
      ],
      "name": "updateTimer",
      "outputs": [
        {
          "name": "",
          "type": "uint256"
        }
      ],
      "payable": false,
      "stateMutability": "nonpayable",
      "type": "function"
    },
    {
      "constant": false,
      "inputs": [
        {
          "name": "_pID",
          "type": "uint256"
        },
        {
          "name": "_rIDlast",
          "type": "uint256"
        }
      ],
      "name": "updateGenVault",
      "outputs": [],
      "payable": false,
      "stateMutability": "nonpayable",
      "type": "function"
    },
    {
      "constant": false,
      "inputs": [
        {
          "name": "_pID",
          "type": "uint256"
        },
        {
          "name": "_gen",
          "type": "uint256"
        },
        {
          "name": "_artxshares",
          "type": "uint256"
        }
      ],
      "name": "updateMasks",
      "outputs": [
        {
          "name": "",
          "type": "uint256"
        }
      ],
      "payable": false,
      "stateMutability": "nonpayable",
      "type": "function"
    }
  ],
  "bytecode": "0x6080604052620f42406001556000600260006101000a81548160ff0219169083151502179055506000600260016101000a81548160ff021916908315150217905550620f4240600355600060045560326005556000600655600060075560006008556000601a556000602060006101000a81548160ff02191690831515021790555034801561008d57600080fd5b50613bb98061009d6000396000f3006080604052600436106101cd576000357c0100000000000000000000000000000000000000000000000000000000900463ffffffff168063011990a1146101d2578063018a25e81461020f57806306fdde031461023a57806307254367146102655780630f15f4c0146102a257806310f01eba146102cd57806311a09ae71461030a57806314e08525146103355780631c5bb878146103725780631e14ec9e1461039d57806324f24b47146103da5780632660316e146104175780632b908190146104545780632e19ebdc1461047f57806334afba79146104bc5780635832d571146104f95780635893d48114610536578063624ae5c01461057357806362dfc51d1461059e5780636b199471146105e6578063832a2cb7146106235780638e07fade146106605780638e7ea5b21461069d578063936651e8146106c857806395d89b41146106f3578063b1ee0b521461071e578063b9d3a8d91461075b578063bb019fe714610798578063c43aa319146107c3578063c4f7eb28146107ee578063c67a8aaa14610819578063c7e284b814610856578063c9d9639314610881578063cf693d1d146108aa578063d53b2679146108d5578063d87574e014610900578063ec54a36a1461092b575b600080fd5b3480156101de57600080fd5b506101f960048036036101f49190810190613461565b610968565b6040516102069190613a33565b60405180910390f35b34801561021b57600080fd5b50610224610bc7565b6040516102319190613a4f565b60405180910390f35b34801561024657600080fd5b5061024f610c7f565b60405161025c9190613991565b60405180910390f35b34801561027157600080fd5b5061028c600480360361028791908101906134c5565b610cb8565b6040516102999190613a4f565b60405180910390f35b3480156102ae57600080fd5b506102b7610e8c565b6040516102c49190613976565b60405180910390f35b3480156102d957600080fd5b506102f460048036036102ef91908101906133e9565b610f07565b6040516103019190613a4f565b60405180910390f35b34801561031657600080fd5b5061031f610f1f565b60405161032c9190613a4f565b60405180910390f35b34801561034157600080fd5b5061035c6004803603610357919081019061353d565b610f25565b6040516103699190613a4f565b60405180910390f35b34801561037e57600080fd5b50610387610f95565b6040516103949190613a4f565b60405180910390f35b3480156103a957600080fd5b506103c460048036036103bf919081019061353d565b610f9b565b6040516103d19190613a4f565b60405180910390f35b3480156103e657600080fd5b5061040160048036036103fc919081019061353d565b610fb4565b60405161040e9190613a4f565b60405180910390f35b34801561042357600080fd5b5061043e60048036036104399190810190613566565b611095565b60405161044b9190613976565b60405180910390f35b34801561046057600080fd5b506104696110c4565b6040516104769190613a4f565b60405180910390f35b34801561048b57600080fd5b506104a660048036036104a19190810190613514565b61119b565b6040516104b39190613a4f565b60405180910390f35b3480156104c857600080fd5b506104e360048036036104de919081019061353d565b6111b3565b6040516104f09190613a4f565b60405180910390f35b34801561050557600080fd5b50610520600480360361051b919081019061353d565b6111da565b60405161052d9190613878565b60405180910390f35b34801561054257600080fd5b5061055d600480360361055891908101906135a2565b611218565b60405161056a9190613a4f565b60405180910390f35b34801561057f57600080fd5b5061058861123d565b6040516105959190613a4f565b60405180910390f35b3480156105aa57600080fd5b506105c560048036036105c091908101906133e9565b611243565b6040516105dd9c9b9a99989796959493929190613893565b60405180910390f35b3480156105f257600080fd5b5061060d600480360361060891908101906135de565b61135b565b60405161061a9190613a4f565b60405180910390f35b34801561062f57600080fd5b5061064a600480360361064591908101906133e9565b61146e565b6040516106579190613976565b60405180910390f35b34801561066c57600080fd5b50610687600480360361068291908101906134c5565b61148e565b6040516106949190613a4f565b60405180910390f35b3480156106a957600080fd5b506106b26116d9565b6040516106bf9190613954565b60405180910390f35b3480156106d457600080fd5b506106dd6123df565b6040516106ea9190613a4f565b60405180910390f35b3480156106ff57600080fd5b506107086123f7565b6040516107159190613991565b60405180910390f35b34801561072a57600080fd5b50610745600480360361074091908101906133e9565b612430565b6040516107529190613a4f565b60405180910390f35b34801561076757600080fd5b50610782600480360361077d9190810190613412565b612546565b60405161078f9190613a4f565b60405180910390f35b3480156107a457600080fd5b506107ad612913565b6040516107ba9190613a4f565b60405180910390f35b3480156107cf57600080fd5b506107d86129d3565b6040516107e59190613a4f565b60405180910390f35b3480156107fa57600080fd5b506108036129d9565b6040516108109190613a4f565b60405180910390f35b34801561082557600080fd5b50610840600480360361083b919081019061353d565b612a5e565b60405161084d9190613a4f565b60405180910390f35b34801561086257600080fd5b5061086b612ae0565b6040516108789190613a4f565b60405180910390f35b34801561088d57600080fd5b506108a860048036036108a391908101906135a2565b612b6c565b005b3480156108b657600080fd5b506108bf612bc9565b6040516108cc9190613a4f565b60405180910390f35b3480156108e157600080fd5b506108ea612cc0565b6040516108f79190613976565b60405180910390f35b34801561090c57600080fd5b50610915612cd3565b6040516109229190613a4f565b60405180910390f35b34801561093757600080fd5b50610952600480360361094d919081019061353d565b612cd9565b60405161095f9190613a4f565b60405180910390f35b610970613120565b6000600a8581151561097e57fe5b0490508573ffffffffffffffffffffffffffffffffffffffff168473ffffffffffffffffffffffffffffffffffffffff1614158015610a4c5750600073ffffffffffffffffffffffffffffffffffffffff16600c60008673ffffffffffffffffffffffffffffffffffffffff1673ffffffffffffffffffffffffffffffffffffffff16815260200190815260200160002060000160009054906101000a900473ffffffffffffffffffffffffffffffffffffffff1673ffffffffffffffffffffffffffffffffffffffff1614155b15610b8c57610aa6600c60008673ffffffffffffffffffffffffffffffffffffffff1673ffffffffffffffffffffffffffffffffffffffff1681526020019081526020016000206004015482612de590919063ffffffff16565b600c60008673ffffffffffffffffffffffffffffffffffffffff1673ffffffffffffffffffffffffffffffffffffffff16815260200190815260200160002060040181905550610b41600c60008873ffffffffffffffffffffffffffffffffffffffff1673ffffffffffffffffffffffffffffffffffffffff1681526020019081526020016000206004015482612de590919063ffffffff16565b600c60008873ffffffffffffffffffffffffffffffffffffffff1673ffffffffffffffffffffffffffffffffffffffff16815260200190815260200160002060040181905550610bbb565b610bb4610ba3600283612e3a90919063ffffffff16565b600654612de590919063ffffffff16565b6006819055505b82915050949350505050565b600080600060326004018190555064174876e800603260020181905550600160326000018190555042905060326004015481118015610c2b575060326002015481111580610c2a575060326002015481118015610c2957506000603260000154145b5b5b15610c7157610c6a670de0b6b3a7640000610c5c670de0b6b3a7640000603260050154612de590919063ffffffff16565b612eab90919063ffffffff16565b9150610c7b565b6544364c5bb00091505b5090565b6040805190810160405280600d81526020017f41727458204f6666696369616c0000000000000000000000000000000000000081525081565b6000806000612710600c60008873ffffffffffffffffffffffffffffffffffffffff1673ffffffffffffffffffffffffffffffffffffffff16815260200190815260200160002060070181905550600554610d24670de0b6b3a764000087612e3a90919063ffffffff16565b811515610d2d57fe5b049150610d4560035483612de590919063ffffffff16565b600381905550670de0b6b3a7640000610d678584612e3a90919063ffffffff16565b811515610d7057fe5b049050610e01600c60008873ffffffffffffffffffffffffffffffffffffffff1673ffffffffffffffffffffffffffffffffffffffff16815260200190815260200160002060070154610df383670de0b6b3a7640000610ddb89600354612e3a90919063ffffffff16565b811515610de457fe5b04612eea90919063ffffffff16565b612de590919063ffffffff16565b600c60008873ffffffffffffffffffffffffffffffffffffffff1673ffffffffffffffffffffffffffffffffffffffff16815260200190815260200160002060070181905550610e81670de0b6b3a7640000610e6860055485612e3a90919063ffffffff16565b811515610e7157fe5b0486612eea90919063ffffffff16565b925050509392505050565b6000801515602060009054906101000a900460ff161515141515610ee5576040517f08c379a0000000000000000000000000000000000000000000000000000000008152600401610edc906139b3565b60405180910390fd5b6001602060006101000a81548160ff0219169083151502179055506001905090565b601c6020528060005260406000206000915090505481565b601a5481565b600080600080429250610f3783610fb4565b9150600a54905060001515600260019054906101000a900460ff161515148015610f6057508082115b15610f8157610f7a85600a54612f3c90919063ffffffff16565b9350610f8d565b610f8a85612f7b565b93505b505050919050565b60015481565b6000816021600101819055506021600101549050919050565b6000806000806000806000819055506000548603935042915060045490506000811415610fe45760009250611018565b600261100b610ffc8885612eea90919063ffffffff16565b83612eea90919063ffffffff16565b81151561101457fe5b0492505b61103e60016110308587612de590919063ffffffff16565b612de590919063ffffffff16565b611080611055600187612de590919063ffffffff16565b611072670de0b6b3a7640000600154612e3a90919063ffffffff16565b612e3a90919063ffffffff16565b81151561108957fe5b04945050505050919050565b601e6020528160005260406000206020528060005260406000206000915091509054906101000a900460ff1681565b60008060646032600801819055506127106032600701819055506103e8603260050181905550620f424090506002602160010181905550600a602160020181905550670de0b6b3a764000061118b60216001015461117d60326005015461115f670de0b6b3a7640000606461114789603260070154612e3a90919063ffffffff16565b81151561115057fe5b04612e3a90919063ffffffff16565b81151561116857fe5b04603260080154612de590919063ffffffff16565b612e3a90919063ffffffff16565b81151561119457fe5b0491505090565b601d6020528060005260406000206000915090505481565b6000808210806111c35750600382115b156111d157600290506111d5565b8190505b919050565b600b818154811015156111e957fe5b906000526020600020016000915054906101000a900473ffffffffffffffffffffffffffffffffffffffff1681565b601f602052816000526040600020602052806000526040600020600091509150505481565b601b5481565b600c6020528060005260406000206000915090508060000160009054906101000a900473ffffffffffffffffffffffffffffffffffffffff169080600101549080600201549080600301549080600401549080600501549080600601549080600701549080600801549080600a018054600181600116156101000203166002900480601f0160208091040260200160405190810160405280929190818152602001828054600181600116156101000203166002900480156113455780601f1061131a57610100808354040283529160200191611345565b820191906000526020600020905b81548152906001019060200180831161132857829003601f168201915b50505050509080600b01549080600c015490508c565b60008060006064603260080181905550600a93508361138b670de0b6b3a764000087612e3a90919063ffffffff16565b81151561139457fe5b0491506113af60326008015483612de590919063ffffffff16565b603260080181905550670de0b6b3a76400006113d48584612e3a90919063ffffffff16565b8115156113dd57fe5b04905061143460216002015461142683670de0b6b3a764000061140e89603260080154612e3a90919063ffffffff16565b81151561141757fe5b04612eea90919063ffffffff16565b612de590919063ffffffff16565b602160020181905550670de0b6b3a76400006114598584612e3a90919063ffffffff16565b81151561146257fe5b04925050509392505050565b600e6020528060005260406000206000915054906101000a900460ff1681565b6000611498613120565b60008060008060008042955060005486039450600060045414156114bf57600093506114f5565b60026114e86114d78842612eea90919063ffffffff16565b600454612eea90919063ffffffff16565b8115156114f157fe5b0493505b611597606461157e600a61152560016115178a8c612de590919063ffffffff16565b612de590919063ffffffff16565b61156661153c60018c612de590919063ffffffff16565b611558670de0b6b3a7640000603c612e3a90919063ffffffff16565b612e3a90919063ffffffff16565b81151561156f57fe5b04612de590919063ffffffff16565b81151561158757fe5b048b612e3a90919063ffffffff16565b925061164e6064611635611625600a6115cc60016115be8b8d612de590919063ffffffff16565b612de590919063ffffffff16565b61160d6115e360018d612de590919063ffffffff16565b6115ff670de0b6b3a7640000603c612e3a90919063ffffffff16565b612e3a90919063ffffffff16565b81151561161657fe5b04612de590919063ffffffff16565b6050612eea90919063ffffffff16565b81151561163e57fe5b048b612e3a90919063ffffffff16565b9150611663838b612eea90919063ffffffff16565b99506116708b838b610cb8565b905060008111156116915761168e818b612eea90919063ffffffff16565b99505b6116b86116a960065483612de590919063ffffffff16565b84612de590919063ffffffff16565b600681905550828760e0018181525050829750505050505050509392505050565b60606000806000806116e961317f565b6000809550600094505b600b8054905085101561234a57600b8581548110151561170f57fe5b9060005260206000200160009054906101000a900473ffffffffffffffffffffffffffffffffffffffff169250600c60008473ffffffffffffffffffffffffffffffffffffffff1673ffffffffffffffffffffffffffffffffffffffff1681526020019081526020016000206101a060405190810160405290816000820160009054906101000a900473ffffffffffffffffffffffffffffffffffffffff1673ffffffffffffffffffffffffffffffffffffffff1673ffffffffffffffffffffffffffffffffffffffff168152602001600182015460001916600019168152602001600282015481526020016003820154815260200160048201548152602001600582015481526020016006820154815260200160078201548152602001600882015481526020016009820180548060200260200160405190810160405280929190818152602001828054801561188557602002820191906000526020600020905b815481526020019060010190808311611871575b50505050508152602001600a82018054600181600116156101000203166002900480601f0160208091040260200160405190810160405280929190818152602001828054600181600116156101000203166002900480156119275780601f106118fc57610100808354040283529160200191611927565b820191906000526020600020905b81548152906001019060200180831161190a57829003601f168201915b50505050508152602001600b8201548152602001600c820154815250509150600090505b8161012001515181101561233d578161012001518181518110151561196c57fe5b90602001906020020151600a5411156119a7578161012001518181518110151561199257fe5b90602001906020020151600a540393506119cb565b600a54826101200151828151811015156119bd57fe5b906020019060200201510393505b6000861415611a58576015600201826000015190806001815401808255809150509060018203906000526020600020016000909192909190916101000a81548173ffffffffffffffffffffffffffffffffffffffff021916908373ffffffffffffffffffffffffffffffffffffffff16021790555050836015600001819055508580600101965050612330565b6001861415611c2a578580600101965050601560000154841415611ae8576015600201826000015190806001815401808255809150509060018203906000526020600020016000909192909190916101000a81548173ffffffffffffffffffffffffffffffffffffffff021916908373ffffffffffffffffffffffffffffffffffffffff16021790555050611c25565b601560000154841115611bac5760156002016012600201908054611b0d929190613201565b506015600001546012600001819055506000601560020181611b2f9190613253565b506015600201826000015190806001815401808255809150509060018203906000526020600020016000909192909190916101000a81548173ffffffffffffffffffffffffffffffffffffffff021916908373ffffffffffffffffffffffffffffffffffffffff1602179055505083601560000181905550611c24565b6012600201826000015190806001815401808255809150509060018203906000526020600020016000909192909190916101000a81548173ffffffffffffffffffffffffffffffffffffffff021916908373ffffffffffffffffffffffffffffffffffffffff16021790555050836012600001819055505b5b61232f565b6002861415611f51578580600101965050601560000154841415611cba576015600201826000015190806001815401808255809150509060018203906000526020600020016000909192909190916101000a81548173ffffffffffffffffffffffffffffffffffffffff021916908373ffffffffffffffffffffffffffffffffffffffff16021790555050611f4c565b601560000154841115611d7e5760156002016012600201908054611cdf929190613201565b506015600001546012600001819055506000601560020181611d019190613253565b506015600201826000015190806001815401808255809150509060018203906000526020600020016000909192909190916101000a81548173ffffffffffffffffffffffffffffffffffffffff021916908373ffffffffffffffffffffffffffffffffffffffff1602179055505083601560000181905550611f4b565b60156000015484108015611d96575060126000015484115b15611e52576012600201600f600201908054611db3929190613201565b50601260000154600f600001819055506000601260020181611dd59190613253565b506012600201826000015190806001815401808255809150509060018203906000526020600020016000909192909190916101000a81548173ffffffffffffffffffffffffffffffffffffffff021916908373ffffffffffffffffffffffffffffffffffffffff1602179055505083601260000181905550611f4a565b601260000154841415611ed1576012600201826000015190806001815401808255809150509060018203906000526020600020016000909192909190916101000a81548173ffffffffffffffffffffffffffffffffffffffff021916908373ffffffffffffffffffffffffffffffffffffffff16021790555050611f49565b600f600201826000015190806001815401808255809150509060018203906000526020600020016000909192909190916101000a81548173ffffffffffffffffffffffffffffffffffffffff021916908373ffffffffffffffffffffffffffffffffffffffff1602179055505083600f600001819055505b5b5b5b61232e565b601560000154841415611fd0576015600201826000015190806001815401808255809150509060018203906000526020600020016000909192909190916101000a81548173ffffffffffffffffffffffffffffffffffffffff021916908373ffffffffffffffffffffffffffffffffffffffff1602179055505061232d565b60156000015484108015611fe8575060126000015484115b1561207c576000601560020181611fff9190613253565b506015600201826000015190806001815401808255809150509060018203906000526020600020016000909192909190916101000a81548173ffffffffffffffffffffffffffffffffffffffff021916908373ffffffffffffffffffffffffffffffffffffffff160217905550508360156000018190555061232c565b6012600001548414156120fb576012600201826000015190806001815401808255809150509060018203906000526020600020016000909192909190916101000a81548173ffffffffffffffffffffffffffffffffffffffff021916908373ffffffffffffffffffffffffffffffffffffffff1602179055505061232b565b601260000154841080156121135750600f6000015484115b156121cf5760126002016015600201908054612130929190613201565b5060126000015460156000018190555060006012600201816121529190613253565b506012600201826000015190806001815401808255809150509060018203906000526020600020016000909192909190916101000a81548173ffffffffffffffffffffffffffffffffffffffff021916908373ffffffffffffffffffffffffffffffffffffffff160217905550508360126000018190555061232a565b600f6000015484141561224e57600f600201826000015190806001815401808255809150509060018203906000526020600020016000909192909190916101000a81548173ffffffffffffffffffffffffffffffffffffffff021916908373ffffffffffffffffffffffffffffffffffffffff16021790555050612329565b60126002016015600201908054612266929190613201565b50601260000154601560000181905550600f600201601260020190805461228e929190613201565b50600f600001546012600001819055506000600f600201816122b09190613253565b50600f600201826000015190806001815401808255809150509060018203906000526020600020016000909192909190916101000a81548173ffffffffffffffffffffffffffffffffffffffff021916908373ffffffffffffffffffffffffffffffffffffffff1602179055505083600f600001819055505b5b5b5b5b5b5b5b808060010191505061194b565b84806001019550506116f3565b600f6002018054806020026020016040519081016040528092919081815260200182805480156123cf57602002820191906000526020600020905b8160009054906101000a900473ffffffffffffffffffffffffffffffffffffffff1673ffffffffffffffffffffffffffffffffffffffff1681526020019060010190808311612385575b5050505050965050505050505090565b6000600a602560080181905550602560080154905090565b6040805190810160405280600381526020017f463344000000000000000000000000000000000000000000000000000000000081525081565b60006729a2241af62c0000600c60008473ffffffffffffffffffffffffffffffffffffffff1673ffffffffffffffffffffffffffffffffffffffff1681526020019081526020016000206008018190555061253f600c60008473ffffffffffffffffffffffffffffffffffffffff1673ffffffffffffffffffffffffffffffffffffffff16815260200190815260200160002060070154670de0b6b3a7640000612527600c60008773ffffffffffffffffffffffffffffffffffffffff1673ffffffffffffffffffffffffffffffffffffffff16815260200190815260200160002060080154600354612e3a90919063ffffffff16565b81151561253057fe5b04612eea90919063ffffffff16565b9050919050565b6000612550613120565b600080600068056bc75e2d631000006007541080156125ca5750670de0b6b3a76400006125c888600c60008c73ffffffffffffffffffffffffffffffffffffffff1673ffffffffffffffffffffffffffffffffffffffff168152602001908152602001600020600c0154612de590919063ffffffff16565b115b1561273857670de0b6b3a7640000600c60008a73ffffffffffffffffffffffffffffffffffffffff1673ffffffffffffffffffffffffffffffffffffffff168152602001908152602001600020600c018190555061267b600c60008a73ffffffffffffffffffffffffffffffffffffffff1673ffffffffffffffffffffffffffffffffffffffff168152602001908152602001600020600c0154670de0b6b3a7640000612eea90919063ffffffff16565b92506126908388612eea90919063ffffffff16565b91506126e782600c60008b73ffffffffffffffffffffffffffffffffffffffff1673ffffffffffffffffffffffffffffffffffffffff16815260200190815260200160002060030154612de590919063ffffffff16565b600c60008a73ffffffffffffffffffffffffffffffffffffffff1673ffffffffffffffffffffffffffffffffffffffff16815260200190815260200160002060030181905550829650829450612908565b633b9aca008711156129075761275987600754612f3c90919063ffffffff16565b9050670de0b6b3a76400008110151561279a576127826078600454612de590919063ffffffff16565b60048190555060648460000151018460000181815250505b6127ef600c60008a73ffffffffffffffffffffffffffffffffffffffff1673ffffffffffffffffffffffffffffffffffffffff1681526020019081526020016000206008015482612de590919063ffffffff16565b600c60008a73ffffffffffffffffffffffffffffffffffffffff1673ffffffffffffffffffffffffffffffffffffffff1681526020019081526020016000206008018190555061288a600c60008a73ffffffffffffffffffffffffffffffffffffffff1673ffffffffffffffffffffffffffffffffffffffff168152602001908152602001600020600c015488612de590919063ffffffff16565b600c60008a73ffffffffffffffffffffffffffffffffffffffff1673ffffffffffffffffffffffffffffffffffffffff168152602001908152602001600020600c01819055506128e560055482612de590919063ffffffff16565b600581905550612900600a5488612de590919063ffffffff16565b600a819055505b5b505050509392505050565b6000806000806000806000600395506103e8945060039350603c9250856032600d018190555084603260040181905550836032600e0181905550826032600f018190555042915061297260326004015483612eea90919063ffffffff16565b90506032600e01546032600d0154820a81151561298b57fe5b046032601101819055506032601101548160010101683635c9adc5dea0000082600101028115156129b857fe5b04603260100181905550603260100154965050505050505090565b60005481565b600060646032600801819055506002602160010181905550600a602160020181905550671bc16d674ec80000612a4f670de0b6b3a7640000612a416005612a33602160010154603260080154612e3a90919063ffffffff16565b612e3a90919063ffffffff16565b612e3a90919063ffffffff16565b811515612a5857fe5b04905090565b600080600080429250612a7083610fb4565b9150600a54905060001515600260019054906101000a900460ff161515148015612a9957508082115b15612acc57612ac585612ab787600554612de590919063ffffffff16565b612eab90919063ffffffff16565b9350612ad8565b612ad585613021565b93505b505050919050565b600080429050600060326004018190555064174876e8006032600201819055506001603260000181905550603260020154811015612b6357603260040154811115612b4457612b3d81603260020154612eea90919063ffffffff16565b9150612b68565b612b5c81603260040154612eea90919063ffffffff16565b9150612b68565b600091505b5090565b6000612b766129d9565b90506000811115612bc457612b9960256003015482612de590919063ffffffff16565b602560030181905550612bba60216002015482612de590919063ffffffff16565b6021600201819055505b505050565b6000806000806000806000806000600397506001965060039550620186a094508760326012018190555086603260040181905550856032601501819055508460326014018190555042935060326004015484039250603260150154603260120154840a811515612c3557fe5b0460326013018190555060019150600a9050612ca48183811515612c5557fe5b04612c6e60326013015486612de590919063ffffffff16565b600101612c8c86600101603260140154612e3a90919063ffffffff16565b811515612c9557fe5b04612de590919063ffffffff16565b6032601601819055506032601301549850505050505050505090565b602060009054906101000a900460ff1681565b60195481565b60008060008060326002018190555042915060326002015482118015612d0457506000603260000154145b15612d4957612d4282612d34601e670de0b6b3a764000088811515612d2557fe5b04612e3a90919063ffffffff16565b612de590919063ffffffff16565b9050612d8a565b612d87603260020154612d79601e670de0b6b3a764000088811515612d6a57fe5b04612e3a90919063ffffffff16565b612de590919063ffffffff16565b90505b612da08262015180612de590919063ffffffff16565b811015612db65780603260020181905550612dd6565b612dcc8262015180612de590919063ffffffff16565b6032600201819055505b60326002015492505050919050565b60008183019050828110151515612e31576040517f08c379a0000000000000000000000000000000000000000000000000000000008152600401612e2890613a13565b60405180910390fd5b80905092915050565b600080831415612e4d5760009050612ea5565b8183029050818382811515612e5e57fe5b04141515612ea1576040517f08c379a0000000000000000000000000000000000000000000000000000000008152600401612e98906139d3565b60405180910390fd5b8090505b92915050565b6000612ee2612ecb612ec68486612eea90919063ffffffff16565b613021565b612ed485613021565b612eea90919063ffffffff16565b905092915050565b6000828211151515612f31576040517f08c379a0000000000000000000000000000000000000000000000000000000008152600401612f28906139f3565b60405180910390fd5b818303905092915050565b6000612f73612f4a84612f7b565b612f65612f608587612de590919063ffffffff16565b612f7b565b612eea90919063ffffffff16565b905092915050565b60006309502f906130106d03b2a1d15167e7c5699bfde00000613002612ffd7a0dac7055469777a6122ee4310dd6c14410500f2904840000000000612fef6b01027e72f1f1281308800000612fe1670de0b6b3a76400008b612e3a90919063ffffffff16565b612e3a90919063ffffffff16565b612de590919063ffffffff16565b6130b4565b612eea90919063ffffffff16565b81151561301957fe5b049050919050565b6000613034670de0b6b3a764000061310d565b6130a3600261306c613057670de0b6b3a764000087612e3a90919063ffffffff16565b65886c8f673070612e3a90919063ffffffff16565b81151561307557fe5b046130956130828661310d565b6304a817c8612e3a90919063ffffffff16565b612de590919063ffffffff16565b8115156130ac57fe5b049050919050565b60008060026130c4846001612de5565b8115156130cd57fe5b0490508291505b818110156131075780915060026130f682858115156130ef57fe5b0483612de5565b8115156130ff57fe5b0490506130d4565b50919050565b60006131198283612e3a565b9050919050565b610100604051908101604052806000815260200160008152602001600073ffffffffffffffffffffffffffffffffffffffff16815260200160008019168152602001600081526020016000815260200160008152602001600081525090565b6101a060405190810160405280600073ffffffffffffffffffffffffffffffffffffffff1681526020016000801916815260200160008152602001600081526020016000815260200160008152602001600081526020016000815260200160008152602001606081526020016060815260200160008152602001600081525090565b8280548282559060005260206000209081019282156132425760005260206000209182015b82811115613241578254825591600101919060010190613226565b5b50905061324f919061327f565b5090565b81548183558181111561327a5781836000526020600020918201910161327991906132c2565b5b505050565b6132bf91905b808211156132bb57600081816101000a81549073ffffffffffffffffffffffffffffffffffffffff021916905550600101613285565b5090565b90565b6132e491905b808211156132e05760008160009055506001016132c8565b5090565b90565b60006132f38235613b07565b905092915050565b60006133078235613b27565b905092915050565b6000610100828403121561332257600080fd5b61332d610100613a6a565b9050600061333d848285016133d5565b6000830152506020613351848285016133d5565b6020830152506040613365848285016132e7565b6040830152506060613379848285016132fb565b606083015250608061338d848285016133d5565b60808301525060a06133a1848285016133d5565b60a08301525060c06133b5848285016133d5565b60c08301525060e06133c9848285016133d5565b60e08301525092915050565b60006133e18235613b31565b905092915050565b6000602082840312156133fb57600080fd5b6000613409848285016132e7565b91505092915050565b60008060006060848603121561342757600080fd5b6000613435868287016132e7565b9350506020613446868287016133d5565b9250506040613457868287016132e7565b9150509250925092565b600080600080610160858703121561347857600080fd5b6000613486878288016132e7565b9450506020613497878288016133d5565b93505060406134a8878288016132e7565b92505060606134b98782880161330f565b91505092959194509250565b6000806000606084860312156134da57600080fd5b60006134e8868287016132e7565b93505060206134f9868287016133d5565b925050604061350a868287016133d5565b9150509250925092565b60006020828403121561352657600080fd5b6000613534848285016132fb565b91505092915050565b60006020828403121561354f57600080fd5b600061355d848285016133d5565b91505092915050565b6000806040838503121561357957600080fd5b6000613587858286016133d5565b9250506020613598858286016132fb565b9150509250929050565b600080604083850312156135b557600080fd5b60006135c3858286016133d5565b92505060206135d4858286016133d5565b9150509250929050565b6000806000606084860312156135f357600080fd5b6000613601868287016133d5565b9350506020613612868287016133d5565b9250506040613623868287016133d5565b9150509250925092565b61363681613ac7565b82525050565b600061364782613aa4565b80845260208401935061365983613a97565b60005b8281101561368b5761366f86835161362d565b61367882613aba565b915060208601955060018101905061365c565b50849250505092915050565b6136a081613ae7565b82525050565b6136af81613af3565b82525050565b60006136c082613aaf565b8084526136d4816020860160208601613b3b565b6136dd81613b6e565b602085010191505092915050565b6000601682527f4172745820616c726561647920616374697661746564000000000000000000006020830152604082019050919050565b6000601382527f536166654d617468206d756c206661696c6564000000000000000000000000006020830152604082019050919050565b6000601382527f536166654d61746820737562206661696c6564000000000000000000000000006020830152604082019050919050565b6000601382527f536166654d61746820616464206661696c6564000000000000000000000000006020830152604082019050919050565b610100820160008201516137de6000850182613869565b5060208201516137f16020850182613869565b506040820151613804604085018261362d565b50606082015161381760608501826136a6565b50608082015161382a6080850182613869565b5060a082015161383d60a0850182613869565b5060c082015161385060c0850182613869565b5060e082015161386360e0850182613869565b50505050565b61387281613afd565b82525050565b600060208201905061388d600083018461362d565b92915050565b6000610180820190506138a9600083018f61362d565b6138b6602083018e6136a6565b6138c3604083018d613869565b6138d0606083018c613869565b6138dd608083018b613869565b6138ea60a083018a613869565b6138f760c0830189613869565b61390460e0830188613869565b613912610100830187613869565b81810361012083015261392581866136b5565b9050613935610140830185613869565b613943610160830184613869565b9d9c50505050505050505050505050565b6000602082019050818103600083015261396e818461363c565b905092915050565b600060208201905061398b6000830184613697565b92915050565b600060208201905081810360008301526139ab81846136b5565b905092915050565b600060208201905081810360008301526139cc816136eb565b9050919050565b600060208201905081810360008301526139ec81613722565b9050919050565b60006020820190508181036000830152613a0c81613759565b9050919050565b60006020820190508181036000830152613a2c81613790565b9050919050565b600061010082019050613a4960008301846137c7565b92915050565b6000602082019050613a646000830184613869565b92915050565b6000604051905081810181811067ffffffffffffffff82111715613a8d57600080fd5b8060405250919050565b6000602082019050919050565b600081519050919050565b600081519050919050565b6000602082019050919050565b600073ffffffffffffffffffffffffffffffffffffffff82169050919050565b60008115159050919050565b6000819050919050565b6000819050919050565b600073ffffffffffffffffffffffffffffffffffffffff82169050919050565b6000819050919050565b6000819050919050565b60005b83811015613b59578082015181840152602081019050613b3e565b83811115613b68576000848401525b50505050565b6000601f19601f83011690509190505600a265627a7a72305820c460511d8a42d006bf2070fb3bd434fa8bc62d71a98dcbb5cfe79c7fb0b42b3f6c6578706572696d656e74616cf50037",
  "source": "pragma experimental ABIEncoderV2;\npragma solidity ^0.4.24;\n\n//==============================================================================\n//     _    _  _ _|_ _  .\n//    (/_\\/(/_| | | _\\  .\n//==============================================================================\ncontract Devents {\n    // fired whenever a player registers a name\n    event onNewName\n    (\n        address indexed playerAddress,\n        string playerName,\n        bool isNewPlayer,\n        address affiliateAddress,\n        uint256 amountPaid,\n        uint256 timeStamp\n    );\n\n    // fired at end of buy or reload\n    event onEndTx\n    (\n        string playerName,\n        address playerAddress,\n        uint256 ethIn,\n        uint256 keysBought,\n        uint256 potAmount\n    );\n\n    // fired whenever theres a withdraw\n    event onWithdraw\n    (\n        address playerAddress,\n        string playerName,\n        uint256 ethOut,\n        uint256 timeStamp\n    );\n\n    // fired whenever a withdraw forces end round to be ran\n    event onWithdrawAndDistribute\n    (\n        address playerAddress,\n        string playerName,\n        uint256 ethOut\n    );\n\n    // (fomo3d long only) fired whenever a player tries a buy after round timer\n    // hit zero, and causes end round to be ran.\n    event onBuyAndDistribute\n    (\n        address playerAddress,\n        bytes32 playerName,\n        uint256 ethIn,\n        uint256 compressedData,\n        uint256 compressedIDs,\n        address winnerAddr,\n        bytes32 winnerName,\n        uint256 amountWon,\n        uint256 newPot,\n        uint256 P3DAmount,\n        uint256 genAmount\n    );\n\n    // (fomo3d long only) fired whenever a player tries a reload after round timer\n    // hit zero, and causes end round to be ran.\n    event onReLoadEnd\n    (\n        address playerAddress,\n        string playerName,\n        uint256 amountWon,\n        uint256 pot\n    );\n\n    // fired whenever an affiliate is paid\n    event onAffiliatePayout\n    (\n        address affiliateAddress,\n        string affiliateName,\n        uint256 amount,\n        uint256 timeStamp\n    );\n\n}\n\n//*****************************************************************************//\n//**************************** ArtX Contract **********************************//\n//*****************************************************************************//\n\ncontract ArtX{\n\n    //Use SafeMath For All the calculations\n    using SafeMath for *;\n    using NameFilter for string;\n    using ArtxsharesCalcLong for uint256;\n\n    struct WinnerGroup {\n        uint256 price;\n        string id;\n        address[] addr;\n    }\n\n    // for Decentralism\n    uint256 constant delay_ = 120 seconds;\n    uint256 public startTime_;\n    uint256 public initEth_ = 1000000;\n    bool private start_ = false;\n    bool private end_ = false;\n    uint256 mask_ = 1000000;\n    uint256 accDelay_ = 0;\n    uint256 keys_ = 50;\n    uint256 pot_ = 0;\n    uint256 eth_ = 0;\n    uint256 com_ = 0;\n    address private win_;\n    uint256 private totalBalance_;\n\n    address[] public addressIndexes;\n\n    mapping (address => ArtXdatasets.Player) public plyrs_;   // (pID => data) player data\n    mapping (string => address) referMap_;\n    mapping (address => bool) public winner_;\n\n    WinnerGroup winnerGroup1_;\n    WinnerGroup winnerGroup2_;\n    WinnerGroup winnerGroup3_;\n    address[] _result;\n\n\n//==============================================================================\n//     _ _  _  |`. _     _ _ |_ | _  _  .\n//    (_(_)| |~|~|(_||_|| (_||_)|(/__\\  .  (game settings)\n//=================_|===========================================================\n    string constant public name = \"ArtX Official\";\n    string constant public symbol = \"F3D\";\n    uint256 constant private rndInit_ = 1 hours;                // round timer starts at this\n    uint256 constant private rndInc_ = 30 seconds;              // every full key purchased adds this much to the timer\n    uint256 constant private rndMax_ = 24 hours;                // max length a round timer can be\n\n//==============================================================================\n//     _| _ _|_ _    _ _ _|_    _   .\n//    (_|(_| | (_|  _\\(/_ | |_||_)  .  (data used to store game info that changes)\n//=============================|================================================\n    uint256 public airDropPot_;             // person who gets the airdrop wins part of this pot\n    uint256 public airDropTracker_ = 0;     // incremented each time a \"qualified\" tx occurs.  used to determine winning air drop\n    uint256 public rID_;    // round id number / total rounds that have happened\n\n//****************\n// PLAYER DATA \n//****************\n    mapping (address => uint256) public pIDxAddr_;          // (addr => pID) returns player id by address\n    mapping (bytes32 => uint256) public pIDxName_;          // (name => pID) returns player id by name\n    mapping (uint256 => mapping (bytes32 => bool)) public plyrNames_; // (pID => name => bool) list of names a player owns.  (used so you can change your display name amongst any name you own)\n\n//****************\n// ROUND DATA \n//****************\n    mapping (uint256 => mapping(uint256 => uint256)) public rndTmEth_;      // (rID => tID => data) eth in per team, by round id and team id\n\n//==============================================================================\n//    (~ _  _    _._|_    .\n//    _)(/_(_|_|| | | \\/  .\n//====================/=========================================================\n    /** upon contract deploy, it will be deactivated.  this is a one time\n     * use function that will activate the contract.  we do this so devs \n     * have time to set things up on the web end s**/\n    \n    bool public activated_ = false;\n    \n    //PlayerRounds setting\n    ArtXdatasets.PlayerRounds PR;\n    ArtXdatasets.Player plyr_;\n    ArtXdatasets.Round round_;\n    ArtXdatasets.Fee fees_;\n\n\n    //Get Time Left\n    function getTimeLeft()\n    public\n    view\n    returns(uint256)\n    {   \n        // grab time\n        uint256 _now = now;\n        round_.strt = 0;\n        round_.end = 100000000000;\n        round_.plyr = 1;\n\n        if (_now < round_.end)\n            if (_now > round_.strt)\n                return((round_.end).sub(_now));\n            else\n                return((round_.strt).sub(_now));\n        else\n            return(0);\n    }\n\n    //activate function\n    function activate()\n    public\n    returns(bool)\n    {\n\n        // can only be ran once\n        require(activated_ == false, \"ArtX already activated\");\n        \n        // activate the contract \n        activated_ = true;\n\n        return true;\n    }\n\n    //Set PlayerRound Shares\n    function setshares(uint256 _shares)\n    public\n    returns(uint256)\n    {   \n        PR.shares = _shares;\n        return(PR.shares);\n    }\n\n    //Calculate Allocation\n    function calculateAllocation()\n    public\n    returns(uint256)\n    {\n\n        //Setting Round\n        uint256 Exp = 3;\n        uint256 strt = 1000;\n        uint256 token_const = 3;\n        uint256 InitialAllocation = 60;\n\n        round_.Exp = Exp;\n        round_.strt = strt;\n        round_.token_const = token_const;\n        round_.InitialAllocation = InitialAllocation;\n\n        // grab time\n        uint256 _now = now;\n\n        //Calcuate time differences\n        uint256 timediff = _now.sub(round_.strt);\n\n        //Decay Rate\n        round_.token_decay = (timediff ** round_.Exp) / round_.token_const;\n\n        //Calculate Cap_\n        round_.allocation = (((1+timediff)*1000000000000000000000) / (1+timediff+round_.token_decay));\n\n        return(round_.allocation);\n    }\n\n    /**\n     * @dev calculate Cap Decay\n     * @return Cap\n     */\n\n    function calculateCapDecay()\n    public\n    returns(uint256)\n    {\n\n        //Setting Round\n        uint256 Exp_DR = 3;\n        uint256 strt = 1;\n        uint256 Cap_Const = 3;\n        uint256 InitialCap = 100000;\n\n        round_.Exp_DR = Exp_DR;\n        round_.strt = strt;\n        round_.Cap_Const = Cap_Const;\n        round_.InitialCap = InitialCap;\n\n        // grab time\n        uint256 _now = now;\n\n        //Calcuate time differences\n        uint256 timediff = _now - round_.strt;\n\n        //Decay Rate\n        round_.DecayRate = (timediff ** round_.Exp_DR) / round_.Cap_Const;\n\n        //Calculate Cap\n        uint256 den = 1;\n        uint256 num = 10;\n\n        round_.Cap = (round_.InitialCap.mul(1+timediff)/(1+timediff.add(round_.DecayRate))).add((den)/(num));\n\n        return(round_.DecayRate);\n    }\n\n    /*\n     * @dev checks to make sure user picked a valid team.  if not sets team \n     * to default (sneks)\n     */\n\n    function verifyappraisal(uint256 _appraisal)\n        public\n        pure\n        returns (uint256)\n    {\n        if (_appraisal < 0 || _appraisal > 3)\n            return(2);\n        else\n            return(_appraisal);\n    }\n\n    /**\n     * @dev calculates unmasked earnings (just calculates, does not update mask)\n     * @return earnings in wei format\n     */\n\n    function calcUnMaskedEarnings()\n        public\n        view\n        returns(uint)\n    {   \n        round_.mask = 100;\n        PR.shares = 2;\n        PR.mask = 10;\n\n        return(round_.mask.mul(PR.shares).mul(5).mul(1000000000000000000)/(2000000000000000000));\n    }\n\n    /*\n     * @dev moves any unmasked earnings to gen vault.  updates earnings mask\n     */\n    function updateDividend(uint256 _pID)\n        private \n    {\n        uint256 _earnings = calcUnMaskedEarnings();\n\n        if (_earnings > 0)\n        {\n            // put in gen vault\n            plyr_.gen = _earnings + (plyr_.gen);\n            // zero out their earnings by updating mask\n            PR.mask = _earnings + (PR.mask);\n        }\n    }\n\n    function getPlayerSharesHelper()\n        public\n        view\n        returns(uint256)\n    {\n\n        round_.mask = 100;\n        round_.pot = 10000;\n        round_.shares = 1000;\n        uint256 TotalPot_ = 1000000;\n        PR.shares = 2;\n        PR.mask = 10;\n\n        return(  ((((round_.mask).add(((((round_.pot).mul(TotalPot_)) / 100).mul(1000000000000000000)) / (round_.shares))).mul(PR.shares)) / 1000000000000000000));\n    }\n\n\n//==============================================================================\n//     _  _ _|__|_ _  _ _  .\n//    (_|(/_ |  | (/_| _\\  . (for UI & viewing things on etherscan)\n//=====_|=======================================================================\n    \n    /**\n     * @dev return the price buyer will pay for next 1 individual key.\n     * -functionhash- 0x018a25e8\n     * @return price for next key bought (in wei format)\n     */\n    function getBuyPrice()\n        public \n        view \n        returns(uint256)\n    {  \n        \n        round_.strt = 0;\n        round_.end = 100000000000;\n        round_.plyr = 1;\n\n        // grab time\n        uint256 _now = now;\n        \n        // are we in a round?\n        if (_now > round_.strt && (_now <= round_.end || (_now > round_.end && round_.plyr == 0)))\n            return ((round_.shares.add(1000000000000000000).ethRec(1000000000000000000)));\n        else // rounds over.  need price for new round\n            return (75000000000000); // init\n    }\n\n\n    /**\n     * @dev this is the core logic for any buy/reload that happens while a round\n     * is live.\n     */\n\n    function coreNew(address _addr, uint256 _eth, address _affID) //, ArtXdatasets.EventReturns memory _eventData_)\n    public\n    returns(uint256)\n    {\n\n        ArtXdatasets.EventReturns memory _eventData_;\n        // early round eth limiter)\n\n        if (eth_ < 100000000000000000000 && plyrs_[_addr].eth.add(_eth) > 1000000000000000000){   \n            plyrs_[_addr].eth = 1000000000000000000;\n\n            uint256 _availableLimit = (1000000000000000000).sub(plyrs_[_addr].eth);\n            uint256 _refund = _eth.sub(_availableLimit);\n            plyrs_[_addr].gen = plyrs_[_addr].gen.add(_refund);\n            _eth = _availableLimit;\n\n            return(_availableLimit);\n\n        }\n\n        // if eth left is greater than min eth allowed (sorry no pocket lint)\n        if (_eth > 1000000000)\n        {\n\n            // mint the new keys\n            uint256 _keys = (eth_).keysRec(_eth);\n\n            // if they bought at least 1 whole key\n            if (_keys >= 1000000000000000000)\n            {\n                accDelay_ = accDelay_.add(delay_);\n\n                // set the new leader bool to true\n                _eventData_.compressedData = _eventData_.compressedData + 100;\n            }\n\n            // update player\n            plyrs_[_addr].keys = _keys.add(plyrs_[_addr].keys);\n            plyrs_[_addr].eth = _eth.add(plyrs_[_addr].eth);\n\n            // update global\n            keys_ = _keys.add(keys_);\n            totalBalance_ = _eth.add(totalBalance_);\n\n            // distribute eth\n            //_eventData_ = distributeExternalNew(_addr, _eth, _affID, _eventData_);\n            //_eventData_ = distributeInternalNew(_addr, _eth, _keys, _eventData_);\n\n            // call end tx function to fire end tx event.\n            //endTxNew(_addr, _eth, _keys, _eventData_);\n        }\n    }\n\n    /**\n     * @dev prepares compression data and fires event for buy or reload tx's\n     */\n    //function endTxNew(address _addr, uint256 _eth, uint256 _keys, ArtXdatasets.EventReturns memory _eventData_)\n    //public\n    //{\n\n    //    emit Devents.onEndTx\n    //    (\n    //        plyrs_[_addr].name,\n    //        msg.sender,\n    //        _eth,\n    //        _keys,\n    //        _eventData_.potAmount\n    //    );\n    //}\n\n\n    /**\n     * @dev distributes eth based on fees to com, aff, and p3d\n     */\n    function distributeExternalNew(address _addr, uint256 _eth, address _affID, ArtXdatasets.EventReturns memory _eventData_)\n    public\n    returns(ArtXdatasets.EventReturns)\n    {\n\n        // distribute share to affiliate\n        uint256 _aff = _eth / 10;\n\n        // decide what to do with affiliate share of fees\n        // affiliate must not be self, and must have a name registered\n        if (_affID != _addr && plyrs_[_affID].addr != address(0)) {\n            plyrs_[_affID].aff = _aff.add(plyrs_[_affID].aff);\n            plyrs_[_addr].aff = _aff.add(plyrs_[_addr].aff);\n\n            // TODO\n            // emit Devents.onAffiliatePayout(_affID, plyrs_[_affID].name, _aff, now);\n            // TODO : change the format of events\n        } else {\n\n            // put it to pot_ if no refer information provided\n            pot_ = pot_.add(_aff.mul(2));\n        }\n\n        // distribute gen share (thats what updateMasks() does) and adjust\n        // balances for dust.\n        //        uint256 _dust = updateMasksXAddr(_addr, _gen, _keys);\n        //        if (_dust > 0)\n        //            _gen = _gen.sub(_dust);\n\n        return(_eventData_);\n    }\n\n    /**\n     * @dev distributes eth based on fees to gen and pot\n     */\n    function distributeInternalNew(address _addr, uint256 _eth, uint256 _keys) // ,ArtXdatasets.EventReturns memory _eventData_)\n    public\n    //returns(ArtXdatasets.EventReturns)\n    returns(uint256)\n    {\n\n        ArtXdatasets.EventReturns memory _eventData_;\n\n        uint256 _now = now;\n        uint256 T = _now - startTime_;\n        uint256 D;\n        if(accDelay_ == 0) {\n            D = 0; // now is larger than time of purchasing\n        }else{\n            D = (accDelay_.sub(now.sub(_now)))/2;\n        }\n\n        // calculate pot\n        uint256 _pot = _eth .mul(((((((60).mul(1000000000000000000)).mul((T).add(1)))/(((T).add(D)).add(1))).add(10)) / 100 ));\n        uint256 _gen = _eth .mul(((80).sub((((((60).mul(1000000000000000000)).mul((T).add(1)))/(((T).add(D)).add(1))).add(10))) / 100 ));\n\n        _eth = _eth.sub(_pot);\n\n        // distribute gen share (thats what updateMasks() does) and adjust\n        // balances for dust.\n        uint256 _dust = updateMasksXAddr(_addr, _gen, _keys);\n        if (_dust > 0)\n            _eth = _eth.sub(_dust);\n\n        // add eth to pot\n        pot_ = _pot.add(_dust.add(pot_));\n\n        // set up event data\n        _eventData_.potAmount = _pot;\n\n        //return(_eventData_);\n        return(_pot);\n    }\n\n    /**\n     * @dev updates masks for round and player when keys are bought\n     * @return dust left over\n     */\n    function updateMasksXAddr(address _addr, uint256 _gen, uint256 _keys)\n    public\n    returns(uint256)\n    {\n        /* MASKING NOTES\n            earnings masks are a tricky thing for people to wrap their minds around.\n            the basic thing to understand here.  is were going to have a global\n            tracker based on profit per share for each round, that increases in\n            relevant proportion to the increase in share supply.\n\n            the player will have an additional mask that basically says \"based\n            on the rounds mask, my shares, and how much i've already withdrawn,\n            how much is still owed to me?\"\n        */\n\n        plyrs_[_addr].mask = 10000;\n\n        // calc profit per key & round mask based on this buy:  (dust goes to pot)\n        uint256 _ppt = (_gen.mul(1000000000000000000) / keys_);\n        mask_ = _ppt.add(mask_);\n\n        // calculate player earning from their own buy (only based on the keys\n        // they just bought).  & update player earnings mask\n        uint256 _pearn = (_ppt.mul(_keys)) / (1000000000000000000);\n        plyrs_[_addr].mask = (((mask_.mul(_keys)) / (1000000000000000000)).sub(_pearn)).add(plyrs_[_addr].mask);\n\n        // calculate & return dust\n        return(_gen.sub((_ppt.mul(keys_)) / (1000000000000000000)));\n    }\n\n    //==============================================================================\n    //     _ _ | _   | _ _|_ _  _ _  .\n    //    (_(_||(_|_||(_| | (_)| _\\  .\n    //==============================================================================\n\n    //Set Address\n    function setaddress()\n    public\n    returns(uint256){\n        plyr_.keys = 10;\n        return(plyr_.keys);\n    }\n\n    /**\n     * @dev calculates unmasked earnings (just calculates, does not update mask)\n     * @return earnings in wei format\n     */\n    function calcUnMaskedEarningsXAddr(address _addr)\n    public\n    view\n    returns(uint256)\n    {   \n        plyrs_[_addr].keys = 3000000000000000000;\n        return((((mask_).mul(plyrs_[_addr].keys)) / (1000000000000000000)).sub(plyrs_[_addr].mask));\n    }\n\n    /**\n     * @dev returns the amount of keys you would get given an amount of eth.\n     * -functionhash- 0xce89c80c\n     * @param _eth amount of eth sent in\n     * @return keys received\n     */\n    function calcKeysReceivedNew(uint256 _eth)\n    public\n    view\n    returns(uint256)\n    {\n        // grab time\n        uint256 _now = now;\n\n        uint256 _ethDec = calculateEndEth(_now);\n        uint256 _ethInc = totalBalance_;\n\n        // are we in a round?\n        if (end_ == false && _ethDec > _ethInc)\n            return ( (totalBalance_).keysRec(_eth) );\n        else // rounds over.  need keys for new round\n            return ( (_eth).keys() );\n    }\n\n    //CalculateEndEthereum\n    function calculateEndEth(uint256 time) public view returns (uint256) {\n\n        startTime_ = 0;\n\n        uint256 T = time - startTime_;\n        uint256 D;\n        uint256 _now = now;\n        uint _localAccDelay = accDelay_;\n        if(_localAccDelay == 0) {\n            D = 0; // now is larger than time of purchasing\n        }else{\n            D = (_localAccDelay.sub(_now.sub(time)))/2;\n        }\n        return (((initEth_).mul(1000000000000000000)).mul((T).add(1)))/(((T).add(D)).add(1));\n    }\n\n    // Get at lease three winners\n    // So there might be more than three winners\n    function getWinner() public returns(address[]) {\n        uint initiCount_ = 0;\n        for(uint256 i = 0; i < addressIndexes.length; i++) {\n            uint256 priceDiff_;\n            address playerAddr_ = addressIndexes[i];\n            ArtXdatasets.Player memory player_ = plyrs_[playerAddr_];\n\n            for(uint j=0;j<player_.est.length;j++){\n\n                if(totalBalance_ > player_.est[j]){\n                    priceDiff_ = totalBalance_ - player_.est[j];\n                }else{\n                    priceDiff_ = player_.est[j] - totalBalance_;\n                }\n\n                if (initiCount_==0) {\n                    winnerGroup3_.addr.push(player_.addr);\n                    winnerGroup3_.price = priceDiff_;\n                    initiCount_++;\n                }else if (initiCount_==1) {\n                    initiCount_++;\n                    if(priceDiff_==winnerGroup3_.price){\n                        winnerGroup3_.addr.push(player_.addr);\n                    }else if(priceDiff_>winnerGroup3_.price){\n                        //                        ArtXdatasets.WinnerGroup tempGroup_;\n                        //                        tempGroup_.addr.push(player_.addr);\n                        //                        tempGroup_.price = priceDiff_;\n                        // not sure about object copy\n                        winnerGroup2_.addr = winnerGroup3_.addr;\n                        winnerGroup2_.price = winnerGroup3_.price;\n                        winnerGroup3_.addr.length = 0;\n                        winnerGroup3_.addr.push(player_.addr);\n                        winnerGroup3_.price = priceDiff_;\n                    }else{\n                        winnerGroup2_.addr.push(player_.addr);\n                        winnerGroup2_.price = priceDiff_;\n                    }\n                } else if (initiCount_==2) {\n                    initiCount_++;\n                    if(priceDiff_==winnerGroup3_.price){\n                        winnerGroup3_.addr.push(player_.addr);\n                    }else if(priceDiff_>winnerGroup3_.price){\n                        //                        ArtXdatasets.WinnerGroup tempGroup_;\n                        //                        tempGroup_.addr.push(player_.addr);\n                        //                        tempGroup_.price = priceDiff_;\n                        winnerGroup2_.addr = winnerGroup3_.addr;\n                        winnerGroup2_.price = winnerGroup3_.price;\n                        winnerGroup3_.addr.length = 0;\n                        winnerGroup3_.addr.push(player_.addr);\n                        winnerGroup3_.price = priceDiff_;\n                    }else if(priceDiff_<winnerGroup3_.price && priceDiff_>winnerGroup2_.price){\n                        //                        ArtXdatasets.WinnerGroup tempGroup_;\n                        //                        tempGroup_.addr.push(player_.addr);\n                        //                        tempGroup_.price = priceDiff_;\n                        winnerGroup1_.addr = winnerGroup2_.addr;\n                        winnerGroup1_.price = winnerGroup2_.price;\n                        winnerGroup2_.addr.length = 0;\n                        winnerGroup2_.addr.push(player_.addr);\n                        winnerGroup2_.price = priceDiff_;\n                    }else if(priceDiff_==winnerGroup2_.price){\n                        winnerGroup2_.addr.push(player_.addr);\n                    }else{\n                        winnerGroup1_.addr.push(player_.addr);\n                        winnerGroup1_.price = priceDiff_;\n                    }\n                } else {\n                    if(priceDiff_==winnerGroup3_.price){\n                        winnerGroup3_.addr.push(player_.addr);\n                    }else if(priceDiff_<winnerGroup3_.price && priceDiff_>winnerGroup2_.price){\n                        winnerGroup3_.addr.length = 0;\n                        winnerGroup3_.addr.push(player_.addr);\n                        winnerGroup3_.price = priceDiff_;\n                    }else if(priceDiff_==winnerGroup2_.price){\n                        winnerGroup2_.addr.push(player_.addr);\n                    }else if(priceDiff_<winnerGroup2_.price && priceDiff_>winnerGroup1_.price){\n                        winnerGroup3_.addr = winnerGroup2_.addr;\n                        winnerGroup3_.price = winnerGroup2_.price;\n                        winnerGroup2_.addr.length = 0;\n                        winnerGroup2_.addr.push(player_.addr);\n                        winnerGroup2_.price = priceDiff_;\n                    }else if(priceDiff_==winnerGroup1_.price){\n                        winnerGroup1_.addr.push(player_.addr);\n                    }else{\n                        winnerGroup3_.addr = winnerGroup2_.addr;\n                        winnerGroup3_.price = winnerGroup2_.price;\n                        winnerGroup2_.addr = winnerGroup1_.addr;\n                        winnerGroup2_.price = winnerGroup1_.price;\n                        winnerGroup1_.addr.length = 0;\n                        winnerGroup1_.addr.push(player_.addr);\n                        winnerGroup1_.price = priceDiff_;\n                    }\n                }\n            }\n        }\n\n        //return (selectAddress());\n        return(winnerGroup1_.addr);\n    }\n\n\n    /**\n     * @dev returns current eth price for X keys.\n     * -functionhash- 0xcf808000\n     * @param _keys number of keys desired (in 18 decimal format)\n     * @return amount of eth needed to send\n     */\n    function iWantXKeysNew(uint256 _keys)\n    public\n    view\n    returns(uint256)\n    {\n\n        // grab time\n        uint256 _now = now;\n\n        uint256 _ethDec = calculateEndEth(_now);\n        uint256 _ethInc = totalBalance_;\n\n        // are we in a round?\n        if (end_ == false && _ethDec > _ethInc)\n            return ( (keys_.add(_keys)).ethRec(_keys) );\n        else // rounds over.  need price for new round\n            return ( (_keys).eth() );\n    }\n\n\n    /*************************************************************************************************************************/\n    /**************************************** Core Function Testing **********************************************************/\n    /*************************************************************************************************************************/\n\n    /**\n     * @dev updates round timer based on number of whole artxshares bought.\n     */\n\n    function updateTimer(uint256 _artxshares)\n        public\n        returns(uint256)\n    {   \n\n        round_.end = 0;\n\n        // grab time\n        uint256 _now = now;\n        \n        // calculate time based on number of artxshares bought\n        uint256 _newTime;\n\n        if (_now > round_.end && round_.plyr == 0)\n            _newTime = (((_artxshares) / (1000000000000000000)).mul(rndInc_)).add(_now);\n        else\n            _newTime = (((_artxshares) / (1000000000000000000)).mul(rndInc_)).add(round_.end);\n        \n        // compare to max and set new end time\n        if (_newTime < (rndMax_).add(_now))\n            round_.end = _newTime;\n        else\n            round_.end = rndMax_.add(_now);\n\n        return(round_.end);\n    }\n\n    /**\n     * @dev decides if round end needs to be run & new round started.  and if \n     * player unmasked earnings from previously played rounds need to be moved.\n     */\n\n    //function managePlayer(uint256 _pID, ArtXdatasets.EventReturns memory _eventData_)\n    //    public\n    //    returns (ArtXdatasets.EventReturns)\n    //{\n        // if player has played a previous round, move their unmasked earnings\n        // from that round to gen vault.\n    //    if (plyr_.lrnd != 0)\n    //        updateGenVault(_pID, plyr_.lrnd);\n            \n        // update player's last round played\n    //    plyr_.lrnd = rID_;\n            \n        // set the joined round bool to true\n    //    _eventData_.compressedData = _eventData_.compressedData + 10;\n        \n    //    return(_eventData_);\n    //}\n\n    /**\n     * @dev moves any unmasked earnings to gen vault.  updates earnings mask\n     */\n    function updateGenVault(uint256 _pID, uint256 _rIDlast)\n        public \n    {   \n        uint256 _earnings = calcUnMaskedEarnings();\n\n        if (_earnings > 0)\n        {\n            // put in gen vault\n            plyr_.gen = _earnings.add(plyr_.gen);\n            // zero out their earnings by updating mask\n            PR.mask = _earnings.add(PR.mask);\n        }\n    }\n\n    /**\n     * @dev distributes eth based on fees to gen and pot\n     */\n    function distributeshares(uint256 _pID, uint256 _eth, uint256 _artxshares) //, ArtXdatasets.EventReturns memory _eventData_)\n        private\n        returns(ArtXdatasets.EventReturns)\n    {\n        // calculate gen share\n        uint256 _gen = (_eth.mul(fees_.gen)) / 100;\n        \n        // toss 50% into pot \n        uint256 _pot = (_eth / 2);\n        uint256 TotalPot_ = TotalPot_.add(_pot);\n        \n        // update eth balance adding \n        _eth = _eth.add(_pot);\n        \n        // calculate pot \n        _pot = _eth.sub(_gen);\n        \n        // distribute gen share (thats what updateMasks() does) and adjust\n        // balances for dust.\n        uint256 _dust = updateMasks(_pID, _gen, _artxshares);\n        if (_dust > 0)\n            _gen = _gen.sub(_dust);\n        \n        // add eth to pot\n        round_.pot = _pot.add(_dust).add(round_.pot);\n        \n        // set up event data\n        //_eventData_.genAmount = _gen.add(_eventData_.genAmount);\n        //_eventData_.potAmount = _pot;\n        \n        //return(_eventData_);\n    }\n\n    /**\n     * @dev updates masks for round and player when artxshares are bought\n     * @return dust left over \n     */\n    function updateMasks(uint256 _pID, uint256 _gen, uint256 _artxshares)\n        public\n        returns(uint256)\n    {\n        /* MASKING NOTES\n            earnings masks are a tricky thing for people to wrap their minds around.\n            the basic thing to understand here.  is were going to have a global\n            tracker based on profit per share for each round, that increases in\n            relevant proportion to the increase in share supply.\n            \n            the player will have an additional mask that basically says \"based\n            on the rounds mask, my shares, and how much i've already withdrawn,\n            how much is still owed to me?\"\n        */\n        \n        round_.mask = 100;\n        _artxshares = 10;\n\n        // calc profit per key & round mask based on this buy:  (dust goes to pot)\n        uint256 _ppt = (_gen.mul(1000000000000000000)) / (_artxshares);\n        round_.mask = _ppt.add(round_.mask);\n            \n        // calculate player earning from their own buy (only based on the artxshares\n        // they just bought).  & update player earnings mask\n        uint256 _pearn = (_ppt.mul(_artxshares)) / (1000000000000000000);\n        PR.mask = (((round_.mask.mul(_artxshares)) / (1000000000000000000)).sub(_pearn)).add(PR.mask);\n        \n        // calculate & return dust\n        return((_ppt.mul(_artxshares)) / (1000000000000000000));\n    }\n\n}\n\n\n//==============================================================================\n//  |  _      _ _ | _  .\n//  |<(/_\\/  (_(_||(_  .\n//=======/======================================================================\n\nlibrary ArtxsharesCalcLong {\n    using SafeMath for *;\n    /**\n     * @dev calculates number of keys received given X eth\n     * @param _curEth current amount of eth in contract\n     * @param _newEth eth being spent\n     * @return amount of ticket purchased\n     */\n    function keysRec(uint256 _curEth, uint256 _newEth)\n    internal\n    pure\n    returns (uint256)\n    {\n        return(keys((_curEth).add(_newEth)).sub(keys(_curEth)));\n    }\n\n    /**\n     * @dev calculates amount of eth received if you sold X keys\n     * @param _curKeys current amount of keys that exist\n     * @param _sellKeys amount of keys you wish to sell\n     * @return amount of eth received\n     */\n    function ethRec(uint256 _curKeys, uint256 _sellKeys)\n    internal\n    pure\n    returns (uint256)\n    {\n        return((eth(_curKeys)).sub(eth(_curKeys.sub(_sellKeys))));\n    }\n\n    /**\n     * @dev calculates how many keys would exist with given an amount of eth\n     * @param _eth eth \"in contract\"\n     * @return number of keys that would exist\n     */\n    function keys(uint256 _eth)\n    internal\n    pure\n    returns(uint256)\n    {\n        return ((((((_eth).mul(1000000000000000000)).mul(312500000000000000000000000)).add(5624988281256103515625000000000000000000000000000000000000000000)).sqrt()).sub(74999921875000000000000000000000)) / (156250000);\n    }\n\n    /**\n     * @dev calculates how much eth would be in contract given a number of keys\n     * @param _keys number of keys \"in contract\"\n     * @return eth that would exists\n     */\n    function eth(uint256 _keys)\n    internal\n    pure\n    returns(uint256)\n    {\n        return ((78125000).mul(_keys.sq()).add(((149999843750000).mul(_keys.mul(1000000000000000000))) / (2))) / ((1000000000000000000).sq());\n    }\n}\n\n\n//==============================================================================\n//   __|_ _    __|_ _  .\n//  _\\ | | |_|(_ | _\\  .\n//==============================================================================\n\nlibrary ArtXdatasets {\n    \n    struct EventReturns {\n        uint256 compressedData;\n        uint256 compressedIDs;\n        address winnerAddr;         // winner address\n        bytes32 winnerName;         // winner name\n        uint256 amountWon;          // amount won\n        uint256 newPot;             // amount in new pot\n        uint256 genAmount;          // amount distributed to gen\n        uint256 potAmount;          // amount added to pot\n    }\n\n    struct Player {\n        address addr;   // player address\n        bytes32 name;   // player name\n        uint256 win;    // winnings vault\n        uint256 gen;    // general vault\n        uint256 aff;    // affiliate vault\n        uint256 lrnd;   // last round played\n        uint256 laff;   // last affiliate id used\n        uint256 mask;\n        uint256 keys;\n        uint256[] est;\n        string referCode; // player's refer code that sent to other players\n        uint256 artxshares; // Player's artxshares\n        uint256 eth; //Player's Total Ethereum\n    }\n\n    struct PlayerRounds {\n        uint256 eth;    // eth player has added to round (used for eth limiter)\n        uint256 shares; // shares\n        uint256 mask;   // player mask \n        uint256 ico;    // ICO phase investment\n    }\n\n    struct Round {\n        uint256 plyr;   // pID of player in lead\n        uint256 team;   // tID of team in lead\n        uint256 end;    // time ends/ended\n        bool ended;     // has round end function been ran\n        uint256 strt;   // time round started\n        uint256 shares; // shares\n        uint256 eth;    // total eth in\n        uint256 pot;    // eth to pot (during round) / final amount paid to winner (after round ends)\n        uint256 mask;   // global mask\n        uint256 ico;    // total eth sent in during ICO phase\n        uint256 icoGen; // total eth for gen during ICO phase\n        uint256 icoAvg; // average key price for ICO phase\n\n        uint256 artxshares; //Round's artxshares\n\n        //Allocation Elements\n        uint256 Exp; //Exponential Decay\n        uint256 token_const; //Token Constant\n        uint256 InitialAllocation; //Initial Allocation\n        uint256 allocation; //Allocation\n        uint256 token_decay; //Token Decay\n\n        //Decay Rates\n        uint256 Exp_DR; //Exponential Decay\n        uint256 DecayRate; //Decay Rate\n        uint256 InitialCap; //Initial Cap\n        uint256 Cap_Const; //Cap Constant\n        uint256 Cap; //Cap\n    }\n\n    struct Fee {\n        uint256 gen;    // % of buy in thats paid to key holders of current round\n    }\n}\n\nlibrary NameFilter {\n    /**\n     * @dev filters name strings\n     * -converts uppercase to lower case.\n     * -makes sure it does not start/end with a space\n     * -makes sure it does not contain multiple spaces in a row\n     * -cannot be only numbers\n     * -cannot start with 0x\n     * -restricts characters to A-Z, a-z, 0-9, and space.\n     * @return reprocessed string in bytes32 format\n     */\n    function nameFilter(string _input)\n    internal\n    pure\n    returns(bytes32)\n    {\n        bytes memory _temp = bytes(_input);\n        uint256 _length = _temp.length;\n\n        //sorry limited to 32 characters\n        require (_length <= 32 && _length > 0, \"string must be between 1 and 32 characters\");\n        // make sure it doesnt start with or end with space\n        require(_temp[0] != 0x20 && _temp[_length-1] != 0x20, \"string cannot start or end with space\");\n        // make sure first two characters are not 0x\n        if (_temp[0] == 0x30)\n        {\n            require(_temp[1] != 0x78, \"string cannot start with 0x\");\n            require(_temp[1] != 0x58, \"string cannot start with 0X\");\n        }\n\n        // create a bool to track if we have a non number character\n        bool _hasNonNumber;\n\n        // convert & check\n        for (uint256 i = 0; i < _length; i++)\n        {\n            // if its uppercase A-Z\n            if (_temp[i] > 0x40 && _temp[i] < 0x5b)\n            {\n                // convert to lower case a-z\n                _temp[i] = byte(uint(_temp[i]) + 32);\n\n                // we have a non number\n                if (_hasNonNumber == false)\n                    _hasNonNumber = true;\n            } else {\n                require\n                (\n                // require character is a space\n                    _temp[i] == 0x20 ||\n                // OR lowercase a-z\n                (_temp[i] > 0x60 && _temp[i] < 0x7b) ||\n                // or 0-9\n                (_temp[i] > 0x2f && _temp[i] < 0x3a),\n                    \"string contains invalid characters\"\n                );\n                // make sure theres not 2x spaces in a row\n                if (_temp[i] == 0x20)\n                    require( _temp[i+1] != 0x20, \"string cannot contain consecutive spaces\");\n\n                // see if we have a character other than a number\n                if (_hasNonNumber == false && (_temp[i] < 0x30 || _temp[i] > 0x39))\n                    _hasNonNumber = true;\n            }\n        }\n\n        require(_hasNonNumber == true, \"string cannot be only numbers\");\n\n        bytes32 _ret;\n        assembly {\n            _ret := mload(add(_temp, 32))\n        }\n        return (_ret);\n    }\n}\n\n/**\n * @title SafeMath v0.1.9\n * @dev Math operations with safety checks that throw on error\n * change notes:  original SafeMath library from OpenZeppelin modified by Inventor\n * - added sqrt\n * - added sq\n * - added pwr \n * - changed asserts to requires with error log outputs\n * - removed div, its useless\n */\n \nlibrary SafeMath {\n    \n    /**\n    * @dev Multiplies two numbers, throws on overflow.\n    */\n    function mul(uint256 a, uint256 b) \n        internal \n        pure \n        returns (uint256 c) \n    {\n        if (a == 0) {\n            return 0;\n        }\n        c = a * b;\n        require(c / a == b, \"SafeMath mul failed\");\n        return c;\n    }\n\n    /**\n    * @dev Subtracts two numbers, throws on overflow (i.e. if subtrahend is greater than minuend).\n    */\n    function sub(uint256 a, uint256 b)\n        internal\n        pure\n        returns (uint256) \n    {\n        require(b <= a, \"SafeMath sub failed\");\n        return a - b;\n    }\n\n    /**\n    * @dev Adds two numbers, throws on overflow.\n    */\n    function add(uint256 a, uint256 b)\n        internal\n        pure\n        returns (uint256 c) \n    {\n        c = a + b;\n        require(c >= a, \"SafeMath add failed\");\n        return c;\n    }\n    \n    /**\n     * @dev gives square root of given x.\n     */\n    function sqrt(uint256 x)\n        internal\n        pure\n        returns (uint256 y) \n    {\n        uint256 z = ((add(x,1)) / 2);\n        y = x;\n        while (z < y) \n        {\n            y = z;\n            z = ((add((x / z),z)) / 2);\n        }\n    }\n    \n    /**\n     * @dev gives square. multiplies x by x\n     */\n    function sq(uint256 x)\n        internal\n        pure\n        returns (uint256)\n    {\n        return (mul(x,x));\n    }\n    \n    /**\n     * @dev x to the power of y \n     */\n    function pwr(uint256 x, uint256 y)\n        internal \n        pure \n        returns (uint256)\n    {\n        if (x==0)\n            return (0);\n        else if (y==0)\n            return (1);\n        else \n        {\n            uint256 z = x;\n            for (uint256 i=1; i < y; i++)\n                z = mul(z,x);\n            return (z);\n        }\n    }\n}",
  "sourcePath": "/Users/clement_chan_pig/Documents/Art_Crypto_Currency_Project/ArtX/contracts/TestCrowdsale.sol",
  "compiler": {
    "name": "solc",
    "version": "0.4.24+commit.e67f0147.Emscripten.clang"
  },
  "schemaVersion": "2.0.1",
  "updatedAt": "2018-09-28T14:53:11.380Z"
}