{
  "contractName": "ArtXCoinCrowdsale",
  "abi": [
    {
      "constant": true,
      "inputs": [],
      "name": "hasClosed",
      "outputs": [
        {
          "name": "",
          "type": "bool"
        }
      ],
      "payable": false,
      "stateMutability": "view",
      "type": "function"
    },
    {
      "constant": true,
      "inputs": [],
      "name": "rate",
      "outputs": [
        {
          "name": "",
          "type": "uint256"
        }
      ],
      "payable": false,
      "stateMutability": "view",
      "type": "function"
    },
    {
      "constant": true,
      "inputs": [],
      "name": "weiRaised",
      "outputs": [
        {
          "name": "",
          "type": "uint256"
        }
      ],
      "payable": false,
      "stateMutability": "view",
      "type": "function"
    },
    {
      "constant": true,
      "inputs": [],
      "name": "closingTime",
      "outputs": [
        {
          "name": "",
          "type": "uint256"
        }
      ],
      "payable": false,
      "stateMutability": "view",
      "type": "function"
    },
    {
      "constant": true,
      "inputs": [],
      "name": "wallet",
      "outputs": [
        {
          "name": "",
          "type": "address"
        }
      ],
      "payable": false,
      "stateMutability": "view",
      "type": "function"
    },
    {
      "constant": true,
      "inputs": [],
      "name": "openingTime",
      "outputs": [
        {
          "name": "",
          "type": "uint256"
        }
      ],
      "payable": false,
      "stateMutability": "view",
      "type": "function"
    },
    {
      "constant": false,
      "inputs": [
        {
          "name": "_beneficiary",
          "type": "address"
        }
      ],
      "name": "buyTokens",
      "outputs": [],
      "payable": true,
      "stateMutability": "payable",
      "type": "function"
    },
    {
      "constant": true,
      "inputs": [],
      "name": "token",
      "outputs": [
        {
          "name": "",
          "type": "address"
        }
      ],
      "payable": false,
      "stateMutability": "view",
      "type": "function"
    },
    {
      "inputs": [
        {
          "name": "_openingTime",
          "type": "uint256"
        },
        {
          "name": "_closingTime",
          "type": "uint256"
        },
        {
          "name": "_rate",
          "type": "uint256"
        },
        {
          "name": "_wallet",
          "type": "address"
        },
        {
          "name": "_token",
          "type": "address"
        }
      ],
      "payable": false,
      "stateMutability": "nonpayable",
      "type": "constructor"
    },
    {
      "payable": true,
      "stateMutability": "payable",
      "type": "fallback"
    },
    {
      "anonymous": false,
      "inputs": [
        {
          "indexed": true,
          "name": "purchaser",
          "type": "address"
        },
        {
          "indexed": true,
          "name": "beneficiary",
          "type": "address"
        },
        {
          "indexed": false,
          "name": "value",
          "type": "uint256"
        },
        {
          "indexed": false,
          "name": "amount",
          "type": "uint256"
        }
      ],
      "name": "TokenPurchase",
      "type": "event"
    }
  ],
  "bytecode": "0x608060405234801561001057600080fd5b5060405160a0806107f88339810180604052810190808051906020019092919080519060200190929190805190602001909291908051906020019092919080519060200190929190505050848484848460008311151561006f57600080fd5b600073ffffffffffffffffffffffffffffffffffffffff168273ffffffffffffffffffffffffffffffffffffffff16141515156100ab57600080fd5b600073ffffffffffffffffffffffffffffffffffffffff168173ffffffffffffffffffffffffffffffffffffffff16141515156100e757600080fd5b8260028190555081600160006101000a81548173ffffffffffffffffffffffffffffffffffffffff021916908373ffffffffffffffffffffffffffffffffffffffff160217905550806000806101000a81548173ffffffffffffffffffffffffffffffffffffffff021916908373ffffffffffffffffffffffffffffffffffffffff16021790555050505042821015151561018157600080fd5b81811015151561019057600080fd5b816004819055508060058190555050505050505050610644806101b46000396000f30060806040526004361061008e576000357c0100000000000000000000000000000000000000000000000000000000900463ffffffff1680631515bc2b146100995780632c4e722e146100c85780634042b66f146100f35780634b6753bc1461011e578063521eb27314610149578063b7a8807c146101a0578063ec8ac4d8146101cb578063fc0c546a14610201575b61009733610258565b005b3480156100a557600080fd5b506100ae610326565b604051808215151515815260200191505060405180910390f35b3480156100d457600080fd5b506100dd610332565b6040518082815260200191505060405180910390f35b3480156100ff57600080fd5b50610108610338565b6040518082815260200191505060405180910390f35b34801561012a57600080fd5b5061013361033e565b6040518082815260200191505060405180910390f35b34801561015557600080fd5b5061015e610344565b604051808273ffffffffffffffffffffffffffffffffffffffff1673ffffffffffffffffffffffffffffffffffffffff16815260200191505060405180910390f35b3480156101ac57600080fd5b506101b561036a565b6040518082815260200191505060405180910390f35b6101ff600480360381019080803573ffffffffffffffffffffffffffffffffffffffff169060200190929190505050610258565b005b34801561020d57600080fd5b50610216610370565b604051808273ffffffffffffffffffffffffffffffffffffffff1673ffffffffffffffffffffffffffffffffffffffff16815260200191505060405180910390f35b6000803491506102688383610395565b610271826103c2565b9050610288826003546103e090919063ffffffff16565b60038190555061029883826103fe565b8273ffffffffffffffffffffffffffffffffffffffff163373ffffffffffffffffffffffffffffffffffffffff167f623b3804fa71d67900d064613da8f94b9617215ee90799290593e1745087ad188484604051808381526020018281526020019250505060405180910390a361030f838361040c565b610317610410565b610321838361047b565b505050565b60006005544211905090565b60025481565b60035481565b60055481565b600160009054906101000a900473ffffffffffffffffffffffffffffffffffffffff1681565b60045481565b6000809054906101000a900473ffffffffffffffffffffffffffffffffffffffff1681565b60045442101580156103a957506005544211155b15156103b457600080fd5b6103be828261047f565b5050565b60006103d9600254836104cf90919063ffffffff16565b9050919050565b60008082840190508381101515156103f457fe5b8091505092915050565b610408828261050a565b5050565b5050565b600160009054906101000a900473ffffffffffffffffffffffffffffffffffffffff1673ffffffffffffffffffffffffffffffffffffffff166108fc349081150290604051600060405180830381858888f19350505050158015610478573d6000803e3d6000fd5b50565b5050565b600073ffffffffffffffffffffffffffffffffffffffff168273ffffffffffffffffffffffffffffffffffffffff16141515156104bb57600080fd5b600081141515156104cb57600080fd5b5050565b60008060008414156104e45760009150610503565b82840290508284828115156104f557fe5b041415156104ff57fe5b8091505b5092915050565b6000809054906101000a900473ffffffffffffffffffffffffffffffffffffffff1673ffffffffffffffffffffffffffffffffffffffff166340c10f1983836040518363ffffffff167c0100000000000000000000000000000000000000000000000000000000028152600401808373ffffffffffffffffffffffffffffffffffffffff1673ffffffffffffffffffffffffffffffffffffffff16815260200182815260200192505050602060405180830381600087803b1580156105ce57600080fd5b505af11580156105e2573d6000803e3d6000fd5b505050506040513d60208110156105f857600080fd5b8101908080519060200190929190505050151561061457600080fd5b50505600a165627a7a72305820e4dbfaf4d3acaf9dfbdb9109ba2e63be09c4e54f83efa70ed9de3c08b5f0ee8d0029",
  "source": "pragma solidity 0.4.24;\n\nimport './ArtXCoin.sol';\nimport 'zeppelin-solidity/contracts/crowdsale/emission/MintedCrowdsale.sol';\nimport 'zeppelin-solidity/contracts/crowdsale/validation/TimedCrowdsale.sol';\n\ncontract ArtXCoinCrowdsale is TimedCrowdsale, MintedCrowdsale {\n    function ArtXCoinCrowdsale\n        (\n            uint256 _openingTime,\n            uint256 _closingTime,\n            uint256 _rate,\n            address _wallet,\n            MintableToken _token\n        )\n        public\n        Crowdsale(_rate, _wallet, _token)\n        TimedCrowdsale(_openingTime, _closingTime) {\n\n        }\n}\n\n//*****************************************************************************//\n//**************************** ArtX Contract **********************************//\n//*****************************************************************************//\n\ncontract ArtX{\n    \n//==============================================================================\n//     _ _  _  |`. _     _ _ |_ | _  _  .\n//    (_(_)| |~|~|(_||_|| (_||_)|(/__\\  .  (game settings)\n//=================_|===========================================================\n    string constant public name = \"FoMo3D Long Official\";\n    string constant public symbol = \"F3D\";\n    uint256 constant private rndInit_ = 1 hours;                // round timer starts at this\n    uint256 constant private rndInc_ = 30 seconds;              // every full key purchased adds this much to the timer\n    uint256 constant private rndMax_ = 24 hours;                // max length a round timer can be\n//==============================================================================\n//     _| _ _|_ _    _ _ _|_    _   .\n//    (_|(_| | (_|  _\\(/_ | |_||_)  .  (data used to store game info that changes)\n//=============================|================================================\n    uint256 public airDropPot_;             // person who gets the airdrop wins part of this pot\n    uint256 public airDropTracker_ = 0;     // incremented each time a \"qualified\" tx occurs.  used to determine winning air drop\n    uint256 public rID_;    // round id number / total rounds that have happened\n//****************\n// PLAYER DATA \n//****************\n    mapping (address => uint256) public pIDxAddr_;          // (addr => pID) returns player id by address\n    mapping (bytes32 => uint256) public pIDxName_;          // (name => pID) returns player id by name\n    mapping (uint256 => mapping (bytes32 => bool)) public plyrNames_; // (pID => name => bool) list of names a player owns.  (used so you can change your display name amongst any name you own)\n//****************\n// ROUND DATA \n//****************\n    mapping (uint256 => mapping(uint256 => uint256)) public rndTmEth_;      // (rID => tID => data) eth in per team, by round id and team id\n\n    function getTimeLeft()\n    public\n    view\n    returns(uint256)\n    {   \n        // grab time\n        uint256 _now = now;\n        return(_now);\n    }\n\n//==============================================================================\n//    (~ _  _    _._|_    .\n//    _)(/_(_|_|| | | \\/  .\n//====================/=========================================================\n    /** upon contract deploy, it will be deactivated.  this is a one time\n     * use function that will activate the contract.  we do this so devs \n     * have time to set things up on the web end                            **/\n    \n    bool public activated_ = false;\n    \n    function activate()\n    public\n    returns(bool)\n    {\n\n        // can only be ran once\n        require(activated_ == false, \"ArtX already activated\");\n        \n        // activate the contract \n        activated_ = true;\n\n        return true;\n    }\n\n    //Set PlayerRound Shares\n    function setshares(uint256 _shares)\n    public\n    returns(uint256)\n    {   \n        //PlayerRounds setting\n        ArtXdatasets.PlayerRounds PR;\n        PR.shares = _shares;\n        return(PR.shares);\n    }\n}\n\n\n//==============================================================================\n//   __|_ _    __|_ _  .\n//  _\\ | | |_|(_ | _\\  .\n//==============================================================================\nlibrary ArtXdatasets {\n    \n    struct EventReturns {\n        uint256 compressedData;\n        uint256 compressedIDs;\n        address winnerAddr;         // winner address\n        bytes32 winnerName;         // winner name\n        uint256 amountWon;          // amount won\n        uint256 newPot;             // amount in new pot\n        uint256 genAmount;          // amount distributed to gen\n        uint256 potAmount;          // amount added to pot\n    }\n\n    struct Player {\n        address addr;   // player address\n        bytes32 name;   // player name\n        uint256 win;    // winnings vault\n        uint256 gen;    // general vault\n        uint256 aff;    // affiliate vault\n        uint256 lrnd;   // last round played\n        uint256 laff;   // last affiliate id used\n    }\n\n    struct PlayerRounds {\n        uint256 eth;    // eth player has added to round (used for eth limiter)\n        uint256 shares; // shares\n        uint256 mask;   // player mask \n        uint256 ico;    // ICO phase investment\n    }\n\n    struct Round {\n        uint256 plyr;   // pID of player in lead\n        uint256 team;   // tID of team in lead\n        uint256 end;    // time ends/ended\n        bool ended;     // has round end function been ran\n        uint256 strt;   // time round started\n        uint256 shares; // shares\n        uint256 eth;    // total eth in\n        uint256 pot;    // eth to pot (during round) / final amount paid to winner (after round ends)\n        uint256 mask;   // global mask\n        uint256 ico;    // total eth sent in during ICO phase\n        uint256 icoGen; // total eth for gen during ICO phase\n        uint256 icoAvg; // average key price for ICO phase\n    }\n\n    struct Fee {\n        uint256 gen;    // % of buy in thats paid to key holders of current round\n    }\n}\n\n",
  "sourcePath": "/Users/clement_chan_pig/Documents/Art_Crypto_Currency_Project/ArtX/contracts/ArtXCoinCrowdSale.sol",
  "compiler": {
    "name": "solc",
    "version": "0.4.24+commit.e67f0147.Emscripten.clang"
  },
  "schemaVersion": "2.0.1",
  "updatedAt": "2018-08-21T03:31:38.335Z"
}