{
  "contractName": "TestCrowdsale",
  "abi": [
    {
      "constant": true,
      "inputs": [],
      "name": "hasClosed",
      "outputs": [
        {
          "name": "",
          "type": "bool"
        }
      ],
      "payable": false,
      "stateMutability": "view",
      "type": "function"
    },
    {
      "constant": true,
      "inputs": [],
      "name": "rate",
      "outputs": [
        {
          "name": "",
          "type": "uint256"
        }
      ],
      "payable": false,
      "stateMutability": "view",
      "type": "function"
    },
    {
      "constant": true,
      "inputs": [],
      "name": "cap",
      "outputs": [
        {
          "name": "",
          "type": "uint256"
        }
      ],
      "payable": false,
      "stateMutability": "view",
      "type": "function"
    },
    {
      "constant": true,
      "inputs": [],
      "name": "goal",
      "outputs": [
        {
          "name": "",
          "type": "uint256"
        }
      ],
      "payable": false,
      "stateMutability": "view",
      "type": "function"
    },
    {
      "constant": true,
      "inputs": [],
      "name": "weiRaised",
      "outputs": [
        {
          "name": "",
          "type": "uint256"
        }
      ],
      "payable": false,
      "stateMutability": "view",
      "type": "function"
    },
    {
      "constant": true,
      "inputs": [],
      "name": "closingTime",
      "outputs": [
        {
          "name": "",
          "type": "uint256"
        }
      ],
      "payable": false,
      "stateMutability": "view",
      "type": "function"
    },
    {
      "constant": false,
      "inputs": [],
      "name": "finalize",
      "outputs": [],
      "payable": false,
      "stateMutability": "nonpayable",
      "type": "function"
    },
    {
      "constant": true,
      "inputs": [],
      "name": "tokensForEcosystem",
      "outputs": [
        {
          "name": "",
          "type": "uint256"
        }
      ],
      "payable": false,
      "stateMutability": "view",
      "type": "function"
    },
    {
      "constant": true,
      "inputs": [],
      "name": "capReached",
      "outputs": [
        {
          "name": "",
          "type": "bool"
        }
      ],
      "payable": false,
      "stateMutability": "view",
      "type": "function"
    },
    {
      "constant": true,
      "inputs": [],
      "name": "wallet",
      "outputs": [
        {
          "name": "",
          "type": "address"
        }
      ],
      "payable": false,
      "stateMutability": "view",
      "type": "function"
    },
    {
      "constant": true,
      "inputs": [],
      "name": "totalTokensForSale",
      "outputs": [
        {
          "name": "",
          "type": "uint256"
        }
      ],
      "payable": false,
      "stateMutability": "view",
      "type": "function"
    },
    {
      "constant": true,
      "inputs": [],
      "name": "tokensForBounty",
      "outputs": [
        {
          "name": "",
          "type": "uint256"
        }
      ],
      "payable": false,
      "stateMutability": "view",
      "type": "function"
    },
    {
      "constant": true,
      "inputs": [],
      "name": "goalReached",
      "outputs": [
        {
          "name": "",
          "type": "bool"
        }
      ],
      "payable": false,
      "stateMutability": "view",
      "type": "function"
    },
    {
      "constant": false,
      "inputs": [
        {
          "name": "_beneficiary",
          "type": "address"
        }
      ],
      "name": "removeFromWhitelist",
      "outputs": [],
      "payable": false,
      "stateMutability": "nonpayable",
      "type": "function"
    },
    {
      "constant": false,
      "inputs": [
        {
          "name": "_beneficiaries",
          "type": "address[]"
        }
      ],
      "name": "addManyToWhitelist",
      "outputs": [],
      "payable": false,
      "stateMutability": "nonpayable",
      "type": "function"
    },
    {
      "constant": true,
      "inputs": [],
      "name": "isFinalized",
      "outputs": [
        {
          "name": "",
          "type": "bool"
        }
      ],
      "payable": false,
      "stateMutability": "view",
      "type": "function"
    },
    {
      "constant": true,
      "inputs": [],
      "name": "owner",
      "outputs": [
        {
          "name": "",
          "type": "address"
        }
      ],
      "payable": false,
      "stateMutability": "view",
      "type": "function"
    },
    {
      "constant": true,
      "inputs": [
        {
          "name": "",
          "type": "address"
        }
      ],
      "name": "whitelist",
      "outputs": [
        {
          "name": "",
          "type": "bool"
        }
      ],
      "payable": false,
      "stateMutability": "view",
      "type": "function"
    },
    {
      "constant": true,
      "inputs": [],
      "name": "totalWeiRaisedDuringPreICO",
      "outputs": [
        {
          "name": "",
          "type": "uint256"
        }
      ],
      "payable": false,
      "stateMutability": "view",
      "type": "function"
    },
    {
      "constant": false,
      "inputs": [],
      "name": "claimRefund",
      "outputs": [],
      "payable": false,
      "stateMutability": "nonpayable",
      "type": "function"
    },
    {
      "constant": true,
      "inputs": [],
      "name": "openingTime",
      "outputs": [
        {
          "name": "",
          "type": "uint256"
        }
      ],
      "payable": false,
      "stateMutability": "view",
      "type": "function"
    },
    {
      "constant": true,
      "inputs": [],
      "name": "totalTokensForSaleDuringPreICO",
      "outputs": [
        {
          "name": "",
          "type": "uint256"
        }
      ],
      "payable": false,
      "stateMutability": "view",
      "type": "function"
    },
    {
      "constant": true,
      "inputs": [],
      "name": "stage",
      "outputs": [
        {
          "name": "",
          "type": "uint8"
        }
      ],
      "payable": false,
      "stateMutability": "view",
      "type": "function"
    },
    {
      "constant": false,
      "inputs": [
        {
          "name": "_beneficiary",
          "type": "address"
        }
      ],
      "name": "addToWhitelist",
      "outputs": [],
      "payable": false,
      "stateMutability": "nonpayable",
      "type": "function"
    },
    {
      "constant": true,
      "inputs": [],
      "name": "maxTokens",
      "outputs": [
        {
          "name": "",
          "type": "uint256"
        }
      ],
      "payable": false,
      "stateMutability": "view",
      "type": "function"
    },
    {
      "constant": false,
      "inputs": [
        {
          "name": "_beneficiary",
          "type": "address"
        }
      ],
      "name": "buyTokens",
      "outputs": [],
      "payable": true,
      "stateMutability": "payable",
      "type": "function"
    },
    {
      "constant": false,
      "inputs": [
        {
          "name": "newOwner",
          "type": "address"
        }
      ],
      "name": "transferOwnership",
      "outputs": [],
      "payable": false,
      "stateMutability": "nonpayable",
      "type": "function"
    },
    {
      "constant": true,
      "inputs": [],
      "name": "vault",
      "outputs": [
        {
          "name": "",
          "type": "address"
        }
      ],
      "payable": false,
      "stateMutability": "view",
      "type": "function"
    },
    {
      "constant": true,
      "inputs": [],
      "name": "token",
      "outputs": [
        {
          "name": "",
          "type": "address"
        }
      ],
      "payable": false,
      "stateMutability": "view",
      "type": "function"
    },
    {
      "constant": true,
      "inputs": [],
      "name": "tokensForTeam",
      "outputs": [
        {
          "name": "",
          "type": "uint256"
        }
      ],
      "payable": false,
      "stateMutability": "view",
      "type": "function"
    },
    {
      "inputs": [
        {
          "name": "_openingTime",
          "type": "uint256"
        },
        {
          "name": "_closingTime",
          "type": "uint256"
        },
        {
          "name": "_rate",
          "type": "uint256"
        },
        {
          "name": "_wallet",
          "type": "address"
        },
        {
          "name": "_cap",
          "type": "uint256"
        },
        {
          "name": "_token",
          "type": "address"
        },
        {
          "name": "_goal",
          "type": "uint256"
        }
      ],
      "payable": false,
      "stateMutability": "nonpayable",
      "type": "constructor"
    },
    {
      "payable": true,
      "stateMutability": "payable",
      "type": "fallback"
    },
    {
      "anonymous": false,
      "inputs": [
        {
          "indexed": false,
          "name": "text",
          "type": "string"
        }
      ],
      "name": "EthTransferred",
      "type": "event"
    },
    {
      "anonymous": false,
      "inputs": [
        {
          "indexed": false,
          "name": "text",
          "type": "string"
        }
      ],
      "name": "EthRefunded",
      "type": "event"
    },
    {
      "anonymous": false,
      "inputs": [],
      "name": "Finalized",
      "type": "event"
    },
    {
      "anonymous": false,
      "inputs": [
        {
          "indexed": true,
          "name": "previousOwner",
          "type": "address"
        },
        {
          "indexed": true,
          "name": "newOwner",
          "type": "address"
        }
      ],
      "name": "OwnershipTransferred",
      "type": "event"
    },
    {
      "anonymous": false,
      "inputs": [
        {
          "indexed": true,
          "name": "purchaser",
          "type": "address"
        },
        {
          "indexed": true,
          "name": "beneficiary",
          "type": "address"
        },
        {
          "indexed": false,
          "name": "value",
          "type": "uint256"
        },
        {
          "indexed": false,
          "name": "amount",
          "type": "uint256"
        }
      ],
      "name": "TokenPurchase",
      "type": "event"
    },
    {
      "constant": false,
      "inputs": [
        {
          "name": "value",
          "type": "uint256"
        }
      ],
      "name": "setCrowdsaleStage",
      "outputs": [],
      "payable": false,
      "stateMutability": "nonpayable",
      "type": "function"
    },
    {
      "constant": false,
      "inputs": [
        {
          "name": "_teamFund",
          "type": "address"
        },
        {
          "name": "_ecosystemFund",
          "type": "address"
        },
        {
          "name": "_bountyFund",
          "type": "address"
        }
      ],
      "name": "finish",
      "outputs": [],
      "payable": false,
      "stateMutability": "nonpayable",
      "type": "function"
    },
    {
      "constant": true,
      "inputs": [],
      "name": "hasEnded",
      "outputs": [
        {
          "name": "",
          "type": "bool"
        }
      ],
      "payable": false,
      "stateMutability": "view",
      "type": "function"
    }
  ],
  "bytecode": "0x60806040526000600760146101000a81548160ff0219169083151502179055506000600b60006101000a81548160ff021916908360018111156200003f57fe5b021790555068056bc75e2d63100000600c556801158e460913d00000600d55678ac7230489e80000600e55678ac7230489e80000600f55680340aad21b3b7000006010556801158e460913d000006011553480156200009d57600080fd5b5060405160e08062002bf083398101806040528101908080519060200190929190805190602001909291908051906020019092919080519060200190929190805190602001909291908051906020019092919080519060200190929190505050808787858888876000831115156200011457600080fd5b600073ffffffffffffffffffffffffffffffffffffffff168273ffffffffffffffffffffffffffffffffffffffff16141515156200015157600080fd5b600073ffffffffffffffffffffffffffffffffffffffff168173ffffffffffffffffffffffffffffffffffffffff16141515156200018e57600080fd5b8260028190555081600160006101000a81548173ffffffffffffffffffffffffffffffffffffffff021916908373ffffffffffffffffffffffffffffffffffffffff160217905550806000806101000a81548173ffffffffffffffffffffffffffffffffffffffff021916908373ffffffffffffffffffffffffffffffffffffffff1602179055505050506000811115156200022957600080fd5b80600481905550504282101515156200024157600080fd5b8181101515156200025157600080fd5b8160058190555080600681905550505033600760006101000a81548173ffffffffffffffffffffffffffffffffffffffff021916908373ffffffffffffffffffffffffffffffffffffffff160217905550600081111515620002b257600080fd5b600160009054906101000a900473ffffffffffffffffffffffffffffffffffffffff16620002df62000398565b808273ffffffffffffffffffffffffffffffffffffffff1673ffffffffffffffffffffffffffffffffffffffff168152602001915050604051809103906000f08015801562000332573d6000803e3d6000fd5b50600960006101000a81548173ffffffffffffffffffffffffffffffffffffffff021916908373ffffffffffffffffffffffffffffffffffffffff16021790555080600881905550508281111515156200038b57600080fd5b50505050505050620003a9565b604051610abd806200213383390190565b611d7a80620003b96000396000f3006080604052600436106101a1576000357c0100000000000000000000000000000000000000000000000000000000900463ffffffff1680631515bc2b146103c15780632c4e722e146103f0578063355274ea1461041b57806340193883146104465780634042b66f146104715780634b6753bc1461049c5780634bb278f3146104c75780634c4cfc3b146104de5780634f93594514610509578063521eb2731461053857806360219c7b1461058f578063644280e2146105ba5780637d3d6522146105e55780637e02bb0f146106145780638ab1d681146106975780638c10671c146106da5780638d4e4083146107155780638da5cb5b146107445780639b19251a1461079b578063a997f82f146107f6578063abe8014a14610823578063b5545a3c1461084e578063b7a8807c14610865578063c02aaea114610890578063c040e6b8146108bb578063e43252d7146108f4578063e831574214610937578063ec8ac4d814610962578063ecb70fb714610998578063f2fde38b146109c7578063fbfa77cf14610a0a578063fc0c546a14610a61578063fde83a3414610ab8575b60006101b860025434610ae390919063ffffffff16565b9050600060018111156101c757fe5b600b60009054906101000a900460ff1660018111156101e257fe5b1480156102b15750601154816000809054906101000a900473ffffffffffffffffffffffffffffffffffffffff1673ffffffffffffffffffffffffffffffffffffffff166318160ddd6040518163ffffffff167c0100000000000000000000000000000000000000000000000000000000028152600401602060405180830381600087803b15801561027357600080fd5b505af1158015610287573d6000803e3d6000fd5b505050506040513d602081101561029d57600080fd5b810190808051906020019092919050505001115b1561036a573373ffffffffffffffffffffffffffffffffffffffff166108fc349081150290604051600060405180830381858888f193505050501580156102fc573d6000803e3d6000fd5b507fc0283f9c45b2118c7ec26e4f4bf06fc486f94a186fb38dc5dff372d9cb709d376040518080602001828103825260108152602001807f50726549434f204c696d6974204869740000000000000000000000000000000081525060200191505060405180910390a16103be565b61037333610b1e565b6000600181111561038057fe5b600b60009054906101000a900460ff16600181111561039b57fe5b14156103bd576103b634601254610bec90919063ffffffff16565b6012819055505b5b50005b3480156103cd57600080fd5b506103d6610c0a565b604051808215151515815260200191505060405180910390f35b3480156103fc57600080fd5b50610405610c16565b6040518082815260200191505060405180910390f35b34801561042757600080fd5b50610430610c1c565b6040518082815260200191505060405180910390f35b34801561045257600080fd5b5061045b610c22565b6040518082815260200191505060405180910390f35b34801561047d57600080fd5b50610486610c28565b6040518082815260200191505060405180910390f35b3480156104a857600080fd5b506104b1610c2e565b6040518082815260200191505060405180910390f35b3480156104d357600080fd5b506104dc610c34565b005b3480156104ea57600080fd5b506104f3610d10565b6040518082815260200191505060405180910390f35b34801561051557600080fd5b5061051e610d16565b604051808215151515815260200191505060405180910390f35b34801561054457600080fd5b5061054d610d25565b604051808273ffffffffffffffffffffffffffffffffffffffff1673ffffffffffffffffffffffffffffffffffffffff16815260200191505060405180910390f35b34801561059b57600080fd5b506105a4610d4b565b6040518082815260200191505060405180910390f35b3480156105c657600080fd5b506105cf610d51565b6040518082815260200191505060405180910390f35b3480156105f157600080fd5b506105fa610d57565b604051808215151515815260200191505060405180910390f35b34801561062057600080fd5b50610695600480360381019080803573ffffffffffffffffffffffffffffffffffffffff169060200190929190803573ffffffffffffffffffffffffffffffffffffffff169060200190929190803573ffffffffffffffffffffffffffffffffffffffff169060200190929190505050610d66565b005b3480156106a357600080fd5b506106d8600480360381019080803573ffffffffffffffffffffffffffffffffffffffff1690602001909291905050506111e4565b005b3480156106e657600080fd5b5061071360048036038101908080359060200190820180359060200191909192939192939050505061129b565b005b34801561072157600080fd5b5061072a61139d565b604051808215151515815260200191505060405180910390f35b34801561075057600080fd5b506107596113b0565b604051808273ffffffffffffffffffffffffffffffffffffffff1673ffffffffffffffffffffffffffffffffffffffff16815260200191505060405180910390f35b3480156107a757600080fd5b506107dc600480360381019080803573ffffffffffffffffffffffffffffffffffffffff1690602001909291905050506113d6565b604051808215151515815260200191505060405180910390f35b34801561080257600080fd5b50610821600480360381019080803590602001909291905050506113f6565b005b34801561082f57600080fd5b50610838611527565b6040518082815260200191505060405180910390f35b34801561085a57600080fd5b5061086361152d565b005b34801561087157600080fd5b5061087a611633565b6040518082815260200191505060405180910390f35b34801561089c57600080fd5b506108a5611639565b6040518082815260200191505060405180910390f35b3480156108c757600080fd5b506108d061163f565b604051808260018111156108e057fe5b60ff16815260200191505060405180910390f35b34801561090057600080fd5b50610935600480360381019080803573ffffffffffffffffffffffffffffffffffffffff169060200190929190505050611652565b005b34801561094357600080fd5b5061094c611709565b6040518082815260200191505060405180910390f35b610996600480360381019080803573ffffffffffffffffffffffffffffffffffffffff169060200190929190505050610b1e565b005b3480156109a457600080fd5b506109ad61170f565b604051808215151515815260200191505060405180910390f35b3480156109d357600080fd5b50610a08600480360381019080803573ffffffffffffffffffffffffffffffffffffffff169060200190929190505050611718565b005b348015610a1657600080fd5b50610a1f611870565b604051808273ffffffffffffffffffffffffffffffffffffffff1673ffffffffffffffffffffffffffffffffffffffff16815260200191505060405180910390f35b348015610a6d57600080fd5b50610a76611896565b604051808273ffffffffffffffffffffffffffffffffffffffff1673ffffffffffffffffffffffffffffffffffffffff16815260200191505060405180910390f35b348015610ac457600080fd5b50610acd6118bb565b6040518082815260200191505060405180910390f35b6000806000841415610af85760009150610b17565b8284029050828482811515610b0957fe5b04141515610b1357fe5b8091505b5092915050565b600080349150610b2e83836118c1565b610b3782611929565b9050610b4e82600354610bec90919063ffffffff16565b600381905550610b5e8382611947565b8273ffffffffffffffffffffffffffffffffffffffff163373ffffffffffffffffffffffffffffffffffffffff167f623b3804fa71d67900d064613da8f94b9617215ee90799290593e1745087ad188484604051808381526020018281526020019250505060405180910390a3610bd58383611955565b610bdd611959565b610be78383611a31565b505050565b6000808284019050838110151515610c0057fe5b8091505092915050565b60006006544211905090565b60025481565b60045481565b60085481565b60035481565b60065481565b600760009054906101000a900473ffffffffffffffffffffffffffffffffffffffff1673ffffffffffffffffffffffffffffffffffffffff163373ffffffffffffffffffffffffffffffffffffffff16141515610c9057600080fd5b600760149054906101000a900460ff16151515610cac57600080fd5b610cb4610c0a565b1515610cbf57600080fd5b610cc7611a35565b7f6823b073d48d6e3a7d385eeb601452d680e74bb46afe3255a7d778f3a9b1768160405160405180910390a16001600760146101000a81548160ff021916908315150217905550565b600d5481565b60006004546003541015905090565b600160009054906101000a900473ffffffffffffffffffffffffffffffffffffffff1681565b60105481565b600f5481565b60006008546003541015905090565b600080600760009054906101000a900473ffffffffffffffffffffffffffffffffffffffff1673ffffffffffffffffffffffffffffffffffffffff163373ffffffffffffffffffffffffffffffffffffffff16141515610dc557600080fd5b600760149054906101000a900460ff16151515610de157600080fd5b6000809054906101000a900473ffffffffffffffffffffffffffffffffffffffff1673ffffffffffffffffffffffffffffffffffffffff166318160ddd6040518163ffffffff167c0100000000000000000000000000000000000000000000000000000000028152600401602060405180830381600087803b158015610e6657600080fd5b505af1158015610e7a573d6000803e3d6000fd5b505050506040513d6020811015610e9057600080fd5b81019080805190602001909291905050509150600c5482101515610eb357600080fd5b816010540390506000811115610ecf5780600d5401600d819055505b6000809054906101000a900473ffffffffffffffffffffffffffffffffffffffff1673ffffffffffffffffffffffffffffffffffffffff1663a9059cbb86600e546040518363ffffffff167c0100000000000000000000000000000000000000000000000000000000028152600401808373ffffffffffffffffffffffffffffffffffffffff1673ffffffffffffffffffffffffffffffffffffffff16815260200182815260200192505050602060405180830381600087803b158015610f9557600080fd5b505af1158015610fa9573d6000803e3d6000fd5b505050506040513d6020811015610fbf57600080fd5b8101908080519060200190929190505050506000809054906101000a900473ffffffffffffffffffffffffffffffffffffffff1673ffffffffffffffffffffffffffffffffffffffff1663a9059cbb85600d546040518363ffffffff167c0100000000000000000000000000000000000000000000000000000000028152600401808373ffffffffffffffffffffffffffffffffffffffff1673ffffffffffffffffffffffffffffffffffffffff16815260200182815260200192505050602060405180830381600087803b15801561109757600080fd5b505af11580156110ab573d6000803e3d6000fd5b505050506040513d60208110156110c157600080fd5b8101908080519060200190929190505050506000809054906101000a900473ffffffffffffffffffffffffffffffffffffffff1673ffffffffffffffffffffffffffffffffffffffff1663a9059cbb84600f546040518363ffffffff167c0100000000000000000000000000000000000000000000000000000000028152600401808373ffffffffffffffffffffffffffffffffffffffff1673ffffffffffffffffffffffffffffffffffffffff16815260200182815260200192505050602060405180830381600087803b15801561119957600080fd5b505af11580156111ad573d6000803e3d6000fd5b505050506040513d60208110156111c357600080fd5b8101908080519060200190929190505050506111dd610c34565b5050505050565b600760009054906101000a900473ffffffffffffffffffffffffffffffffffffffff1673ffffffffffffffffffffffffffffffffffffffff163373ffffffffffffffffffffffffffffffffffffffff1614151561124057600080fd5b6000600a60008373ffffffffffffffffffffffffffffffffffffffff1673ffffffffffffffffffffffffffffffffffffffff16815260200190815260200160002060006101000a81548160ff02191690831515021790555050565b6000600760009054906101000a900473ffffffffffffffffffffffffffffffffffffffff1673ffffffffffffffffffffffffffffffffffffffff163373ffffffffffffffffffffffffffffffffffffffff161415156112f957600080fd5b600090505b82829050811015611398576001600a6000858585818110151561131d57fe5b9050602002013573ffffffffffffffffffffffffffffffffffffffff1673ffffffffffffffffffffffffffffffffffffffff1673ffffffffffffffffffffffffffffffffffffffff16815260200190815260200160002060006101000a81548160ff02191690831515021790555080806001019150506112fe565b505050565b600760149054906101000a900460ff1681565b600760009054906101000a900473ffffffffffffffffffffffffffffffffffffffff1681565b600a6020528060005260406000206000915054906101000a900460ff1681565b6000600760009054906101000a900473ffffffffffffffffffffffffffffffffffffffff1673ffffffffffffffffffffffffffffffffffffffff163373ffffffffffffffffffffffffffffffffffffffff1614151561145457600080fd5b816000600181111561146257fe5b1415611471576000905061148a565b8160018081111561147e57fe5b141561148957600190505b5b80600b60006101000a81548160ff021916908360018111156114a857fe5b0217905550600060018111156114ba57fe5b600b60009054906101000a900460ff1660018111156114d557fe5b14156114ea576114e56005611b8e565b611523565b6001808111156114f657fe5b600b60009054906101000a900460ff16600181111561151157fe5b1415611522576115216002611b8e565b5b5b5050565b60125481565b600760149054906101000a900460ff16151561154857600080fd5b611550610d57565b15151561155c57600080fd5b600960009054906101000a900473ffffffffffffffffffffffffffffffffffffffff1673ffffffffffffffffffffffffffffffffffffffff1663fa89401a336040518263ffffffff167c0100000000000000000000000000000000000000000000000000000000028152600401808273ffffffffffffffffffffffffffffffffffffffff1673ffffffffffffffffffffffffffffffffffffffff168152602001915050600060405180830381600087803b15801561161957600080fd5b505af115801561162d573d6000803e3d6000fd5b50505050565b60055481565b60115481565b600b60009054906101000a900460ff1681565b600760009054906101000a900473ffffffffffffffffffffffffffffffffffffffff1673ffffffffffffffffffffffffffffffffffffffff163373ffffffffffffffffffffffffffffffffffffffff161415156116ae57600080fd5b6001600a60008373ffffffffffffffffffffffffffffffffffffffff1673ffffffffffffffffffffffffffffffffffffffff16815260200190815260200160002060006101000a81548160ff02191690831515021790555050565b600c5481565b60006001905090565b600760009054906101000a900473ffffffffffffffffffffffffffffffffffffffff1673ffffffffffffffffffffffffffffffffffffffff163373ffffffffffffffffffffffffffffffffffffffff1614151561177457600080fd5b600073ffffffffffffffffffffffffffffffffffffffff168173ffffffffffffffffffffffffffffffffffffffff16141515156117b057600080fd5b8073ffffffffffffffffffffffffffffffffffffffff16600760009054906101000a900473ffffffffffffffffffffffffffffffffffffffff1673ffffffffffffffffffffffffffffffffffffffff167f8be0079c531659141344cd1fd0a4f28419497f9722a3daafe3b4186f6b6457e060405160405180910390a380600760006101000a81548173ffffffffffffffffffffffffffffffffffffffff021916908373ffffffffffffffffffffffffffffffffffffffff16021790555050565b600960009054906101000a900473ffffffffffffffffffffffffffffffffffffffff1681565b6000809054906101000a900473ffffffffffffffffffffffffffffffffffffffff1681565b600e5481565b81600a60008273ffffffffffffffffffffffffffffffffffffffff1673ffffffffffffffffffffffffffffffffffffffff16815260200190815260200160002060009054906101000a900460ff16151561191a57600080fd5b6119248383611b98565b505050565b600061194060025483610ae390919063ffffffff16565b9050919050565b6119518282611bc5565b5050565b5050565b600960009054906101000a900473ffffffffffffffffffffffffffffffffffffffff1673ffffffffffffffffffffffffffffffffffffffff1663f340fa0134336040518363ffffffff167c0100000000000000000000000000000000000000000000000000000000028152600401808273ffffffffffffffffffffffffffffffffffffffff1673ffffffffffffffffffffffffffffffffffffffff1681526020019150506000604051808303818588803b158015611a1657600080fd5b505af1158015611a2a573d6000803e3d6000fd5b5050505050565b5050565b611a3d610d57565b15611ae557600960009054906101000a900473ffffffffffffffffffffffffffffffffffffffff1673ffffffffffffffffffffffffffffffffffffffff166343d726d66040518163ffffffff167c0100000000000000000000000000000000000000000000000000000000028152600401600060405180830381600087803b158015611ac857600080fd5b505af1158015611adc573d6000803e3d6000fd5b50505050611b84565b600960009054906101000a900473ffffffffffffffffffffffffffffffffffffffff1673ffffffffffffffffffffffffffffffffffffffff16638c52dc416040518163ffffffff167c0100000000000000000000000000000000000000000000000000000000028152600401600060405180830381600087803b158015611b6b57600080fd5b505af1158015611b7f573d6000803e3d6000fd5b505050505b611b8c611cc9565b565b8060028190555050565b6005544210158015611bac57506006544211155b1515611bb757600080fd5b611bc18282611ccb565b5050565b6000809054906101000a900473ffffffffffffffffffffffffffffffffffffffff1673ffffffffffffffffffffffffffffffffffffffff1663a9059cbb83836040518363ffffffff167c0100000000000000000000000000000000000000000000000000000000028152600401808373ffffffffffffffffffffffffffffffffffffffff1673ffffffffffffffffffffffffffffffffffffffff16815260200182815260200192505050602060405180830381600087803b158015611c8957600080fd5b505af1158015611c9d573d6000803e3d6000fd5b505050506040513d6020811015611cb357600080fd5b8101908080519060200190929190505050505050565b565b611cd58282611cfe565b600454611ced82600354610bec90919063ffffffff16565b11151515611cfa57600080fd5b5050565b600073ffffffffffffffffffffffffffffffffffffffff168273ffffffffffffffffffffffffffffffffffffffff1614151515611d3a57600080fd5b60008114151515611d4a57600080fd5b50505600a165627a7a723058200c89307e589a7b589d248c9f08ba740186c2cd4b210b6d523e8407d1c8588a190029608060405234801561001057600080fd5b50604051602080610abd83398101806040528101908080519060200190929190505050336000806101000a81548173ffffffffffffffffffffffffffffffffffffffff021916908373ffffffffffffffffffffffffffffffffffffffff160217905550600073ffffffffffffffffffffffffffffffffffffffff168173ffffffffffffffffffffffffffffffffffffffff16141515156100af57600080fd5b80600260006101000a81548173ffffffffffffffffffffffffffffffffffffffff021916908373ffffffffffffffffffffffffffffffffffffffff1602179055506000600260146101000a81548160ff0219169083600281111561010f57fe5b021790555050610999806101246000396000f300608060405260043610610099576000357c0100000000000000000000000000000000000000000000000000000000900463ffffffff16806343d726d61461009e578063521eb273146100b55780638c52dc411461010c5780638da5cb5b14610123578063c19d93fb1461017a578063cb13cddb146101b3578063f2fde38b1461020a578063f340fa011461024d578063fa89401a14610283575b600080fd5b3480156100aa57600080fd5b506100b36102c6565b005b3480156100c157600080fd5b506100ca610426565b604051808273ffffffffffffffffffffffffffffffffffffffff1673ffffffffffffffffffffffffffffffffffffffff16815260200191505060405180910390f35b34801561011857600080fd5b5061012161044c565b005b34801561012f57600080fd5b5061013861052d565b604051808273ffffffffffffffffffffffffffffffffffffffff1673ffffffffffffffffffffffffffffffffffffffff16815260200191505060405180910390f35b34801561018657600080fd5b5061018f610552565b6040518082600281111561019f57fe5b60ff16815260200191505060405180910390f35b3480156101bf57600080fd5b506101f4600480360381019080803573ffffffffffffffffffffffffffffffffffffffff169060200190929190505050610565565b6040518082815260200191505060405180910390f35b34801561021657600080fd5b5061024b600480360381019080803573ffffffffffffffffffffffffffffffffffffffff16906020019092919050505061057d565b005b610281600480360381019080803573ffffffffffffffffffffffffffffffffffffffff1690602001909291905050506106d2565b005b34801561028f57600080fd5b506102c4600480360381019080803573ffffffffffffffffffffffffffffffffffffffff1690602001909291905050506107f9565b005b6000809054906101000a900473ffffffffffffffffffffffffffffffffffffffff1673ffffffffffffffffffffffffffffffffffffffff163373ffffffffffffffffffffffffffffffffffffffff1614151561032157600080fd5b6000600281111561032e57fe5b600260149054906101000a900460ff16600281111561034957fe5b14151561035557600080fd5b60028060146101000a81548160ff0219169083600281111561037357fe5b02179055507f1cdde67b72a90f19919ac732a437ac2f7a10fc128d28c2a6e525d89ce5cd9d3a60405160405180910390a1600260009054906101000a900473ffffffffffffffffffffffffffffffffffffffff1673ffffffffffffffffffffffffffffffffffffffff166108fc3073ffffffffffffffffffffffffffffffffffffffff16319081150290604051600060405180830381858888f19350505050158015610423573d6000803e3d6000fd5b50565b600260009054906101000a900473ffffffffffffffffffffffffffffffffffffffff1681565b6000809054906101000a900473ffffffffffffffffffffffffffffffffffffffff1673ffffffffffffffffffffffffffffffffffffffff163373ffffffffffffffffffffffffffffffffffffffff161415156104a757600080fd5b600060028111156104b457fe5b600260149054906101000a900460ff1660028111156104cf57fe5b1415156104db57600080fd5b6001600260146101000a81548160ff021916908360028111156104fa57fe5b02179055507f599d8e5a83cffb867d051598c4d70e805d59802d8081c1c7d6dffc5b6aca2b8960405160405180910390a1565b6000809054906101000a900473ffffffffffffffffffffffffffffffffffffffff1681565b600260149054906101000a900460ff1681565b60016020528060005260406000206000915090505481565b6000809054906101000a900473ffffffffffffffffffffffffffffffffffffffff1673ffffffffffffffffffffffffffffffffffffffff163373ffffffffffffffffffffffffffffffffffffffff161415156105d857600080fd5b600073ffffffffffffffffffffffffffffffffffffffff168173ffffffffffffffffffffffffffffffffffffffff161415151561061457600080fd5b8073ffffffffffffffffffffffffffffffffffffffff166000809054906101000a900473ffffffffffffffffffffffffffffffffffffffff1673ffffffffffffffffffffffffffffffffffffffff167f8be0079c531659141344cd1fd0a4f28419497f9722a3daafe3b4186f6b6457e060405160405180910390a3806000806101000a81548173ffffffffffffffffffffffffffffffffffffffff021916908373ffffffffffffffffffffffffffffffffffffffff16021790555050565b6000809054906101000a900473ffffffffffffffffffffffffffffffffffffffff1673ffffffffffffffffffffffffffffffffffffffff163373ffffffffffffffffffffffffffffffffffffffff1614151561072d57600080fd5b6000600281111561073a57fe5b600260149054906101000a900460ff16600281111561075557fe5b14151561076157600080fd5b6107b334600160008473ffffffffffffffffffffffffffffffffffffffff1673ffffffffffffffffffffffffffffffffffffffff1681526020019081526020016000205461094f90919063ffffffff16565b600160008373ffffffffffffffffffffffffffffffffffffffff1673ffffffffffffffffffffffffffffffffffffffff1681526020019081526020016000208190555050565b60006001600281111561080857fe5b600260149054906101000a900460ff16600281111561082357fe5b14151561082f57600080fd5b600160008373ffffffffffffffffffffffffffffffffffffffff1673ffffffffffffffffffffffffffffffffffffffff1681526020019081526020016000205490506000600160008473ffffffffffffffffffffffffffffffffffffffff1673ffffffffffffffffffffffffffffffffffffffff168152602001908152602001600020819055508173ffffffffffffffffffffffffffffffffffffffff166108fc829081150290604051600060405180830381858888f193505050501580156108fc573d6000803e3d6000fd5b508173ffffffffffffffffffffffffffffffffffffffff167fd7dee2702d63ad89917b6a4da9981c90c4d24f8c2bdfd64c604ecae57d8d0651826040518082815260200191505060405180910390a25050565b600080828401905083811015151561096357fe5b80915050929150505600a165627a7a723058206b4a0aafc8dedd6f9f3b808860b840f28c070c36ee857ec6741f41af5f2a94450029",
  "source": "pragma solidity ^0.4.18;\n\nimport \"zeppelin-solidity/contracts/crowdsale/validation/CappedCrowdsale.sol\";\nimport \"zeppelin-solidity/contracts/crowdsale/validation/WhitelistedCrowdsale.sol\";\nimport \"zeppelin-solidity/contracts/crowdsale/distribution/RefundableCrowdsale.sol\";\nimport 'zeppelin-solidity/contracts/token/ERC20/MintableToken.sol';\nimport '../contracts/TestToken.sol';\n\n\ncontract TestCrowdsale is CappedCrowdsale, RefundableCrowdsale, WhitelistedCrowdsale {\n\n\n\t// ICO Stage\n  // ============\n  enum CrowdsaleStage { PreICO, ICO }\n  CrowdsaleStage public stage = CrowdsaleStage.PreICO; // By default it's Pre Sale\n  // =============\n\n  // Token Distribution\n  // =============================\n  uint256 public maxTokens = 100000000000000000000; // There will be total 100 Hashnode Tokens\n  uint256 public tokensForEcosystem = 20000000000000000000;\n  uint256 public tokensForTeam = 10000000000000000000;\n  uint256 public tokensForBounty = 10000000000000000000;\n  uint256 public totalTokensForSale = 60000000000000000000; // 60 HTs will be sold in Crowdsale\n  uint256 public totalTokensForSaleDuringPreICO = 20000000000000000000; // 20 out of 60 HTs will be sold during PreICO\n  // ==============================\n\n  // Amount raised in PreICO\n  // ==================\n  uint256 public totalWeiRaisedDuringPreICO;\n  // ===================\n\n\n  // Events\n  event EthTransferred(string text);\n  event EthRefunded(string text);\n\n\n // Constructor\n  // ============\n  function TestCrowdsale(uint256 _openingTime, uint256 _closingTime, uint256 _rate, address _wallet, uint256 _cap, MintableToken _token, uint256 _goal) public\n    Crowdsale(_rate, _wallet, _token)\n    CappedCrowdsale(_cap)\n    TimedCrowdsale(_openingTime, _closingTime)\n    RefundableCrowdsale(_goal)\n    WhitelistedCrowdsale()\n  {\n    require(_goal <= _cap);\n  }\n  // ==================\n\n  // Crowdsale Stage Management\n  // =========================================================\n\n  // Change Crowdsale Stage. Available Options: PreICO, ICO\n  function setCrowdsaleStage(uint value) public onlyOwner {\n\n      CrowdsaleStage _stage;\n\n      if (uint(CrowdsaleStage.PreICO) == value) {\n        _stage = CrowdsaleStage.PreICO;\n      } else if (uint(CrowdsaleStage.ICO) == value) {\n        _stage = CrowdsaleStage.ICO;\n      }\n\n      stage = _stage;\n\n      if (stage == CrowdsaleStage.PreICO) {\n        setCurrentRate(5);\n      } else if (stage == CrowdsaleStage.ICO) {\n        setCurrentRate(2);\n      }\n  }\n\n  // Change the current rate\n  function setCurrentRate(uint256 _rate) private {\n      rate = _rate;\n  }\n\n  // ================ Stage Management Over =====================\n\n  // Token Purchase\n  // =========================\n  function () external payable {\n      uint256 tokensThatWillBeMintedAfterPurchase = msg.value.mul(rate);\n      if ((stage == CrowdsaleStage.PreICO) && (token.totalSupply() + tokensThatWillBeMintedAfterPurchase > totalTokensForSaleDuringPreICO)) {\n        msg.sender.transfer(msg.value); // Refund them\n        EthRefunded(\"PreICO Limit Hit\");\n        return;\n      }\n\n      buyTokens(msg.sender);\n\n      if (stage == CrowdsaleStage.PreICO) {\n          totalWeiRaisedDuringPreICO = totalWeiRaisedDuringPreICO.add(msg.value);\n      }\n  }\n\n  function forwardFunds() internal {\n      if (stage == CrowdsaleStage.PreICO) {\n          wallet.transfer(msg.value);\n          EthTransferred(\"forwarding funds to wallet\");\n      } else if (stage == CrowdsaleStage.ICO) {\n          EthTransferred(\"forwarding funds to refundable vault\");  \n          super._forwardFunds();\n    \n      }\n  }\n  // ===========================\n\n  // Finish: Mint Extra Tokens as needed before finalizing the Crowdsale.\n  // ====================================================================\n\n  function finish(address _teamFund, address _ecosystemFund, address _bountyFund) public onlyOwner {\n\n      require(!isFinalized);\n      uint256 alreadyMinted = token.totalSupply();\n      require(alreadyMinted < maxTokens);\n\n      uint256 unsoldTokens = totalTokensForSale - alreadyMinted;\n      if (unsoldTokens > 0) {\n        tokensForEcosystem = tokensForEcosystem + unsoldTokens;\n      }\n\n      token.transfer(_teamFund,tokensForTeam);\n      token.transfer(_ecosystemFund,tokensForEcosystem);\n      token.transfer(_bountyFund,tokensForBounty);\n      finalize();\n  }\n  // ===============================\n\n  // REMOVE THIS FUNCTION ONCE YOU ARE READY FOR PRODUCTION\n  // USEFUL FOR TESTING `finish()` FUNCTION\n  function hasEnded() public view returns (bool) {\n    return true;\n  }\n\n}\n\n\n//*****************************************************************************//\n//**************************** ArtX Contract **********************************//\n//*****************************************************************************//\n\ncontract ArtX{\n\n//Use SafeMath For All the calculations\nusing SafeMath for *;\n\n//==============================================================================\n//     _ _  _  |`. _     _ _ |_ | _  _  .\n//    (_(_)| |~|~|(_||_|| (_||_)|(/__\\  .  (game settings)\n//=================_|===========================================================\n    string constant public name = \"FoMo3D Long Official\";\n    string constant public symbol = \"F3D\";\n    uint256 constant private rndInit_ = 1 hours;                // round timer starts at this\n    uint256 constant private rndInc_ = 30 seconds;              // every full key purchased adds this much to the timer\n    uint256 constant private rndMax_ = 24 hours;                // max length a round timer can be\n\n//==============================================================================\n//     _| _ _|_ _    _ _ _|_    _   .\n//    (_|(_| | (_|  _\\(/_ | |_||_)  .  (data used to store game info that changes)\n//=============================|================================================\n    uint256 public airDropPot_;             // person who gets the airdrop wins part of this pot\n    uint256 public airDropTracker_ = 0;     // incremented each time a \"qualified\" tx occurs.  used to determine winning air drop\n    uint256 public rID_;    // round id number / total rounds that have happened\n\n//****************\n// PLAYER DATA \n//****************\n    mapping (address => uint256) public pIDxAddr_;          // (addr => pID) returns player id by address\n    mapping (bytes32 => uint256) public pIDxName_;          // (name => pID) returns player id by name\n    mapping (uint256 => mapping (bytes32 => bool)) public plyrNames_; // (pID => name => bool) list of names a player owns.  (used so you can change your display name amongst any name you own)\n\n//****************\n// ROUND DATA \n//****************\n    mapping (uint256 => mapping(uint256 => uint256)) public rndTmEth_;      // (rID => tID => data) eth in per team, by round id and team id\n\n//==============================================================================\n//    (~ _  _    _._|_    .\n//    _)(/_(_|_|| | | \\/  .\n//====================/=========================================================\n    /** upon contract deploy, it will be deactivated.  this is a one time\n     * use function that will activate the contract.  we do this so devs \n     * have time to set things up on the web end s**/\n    \n    bool public activated_ = false;\n    \n    //PlayerRounds setting\n    ArtXdatasets.PlayerRounds PR;\n    ArtXdatasets.Player plyr_;\n    ArtXdatasets.Round round_;\n\n\n    //Get Time Left\n    function getTimeLeft()\n    public\n    view\n    returns(uint256)\n    {   \n        // grab time\n        uint256 _now = now;\n        round_.strt = 0;\n        round_.end = 100000000000;\n        round_.plyr = 1;\n\n        if (_now < round_.end)\n            if (_now > round_.strt)\n                return((round_.end).sub(_now));\n            else\n                return((round_.strt).sub(_now));\n        else\n            return(0);\n    }\n\n    //activate function\n    function activate()\n    public\n    returns(bool)\n    {\n\n        // can only be ran once\n        require(activated_ == false, \"ArtX already activated\");\n        \n        // activate the contract \n        activated_ = true;\n\n        return true;\n    }\n\n    //Set PlayerRound Shares\n    function setshares(uint256 _shares)\n    public\n    returns(uint256)\n    {   \n        PR.shares = _shares;\n        return(PR.shares);\n    }\n\n    //Calculate Allocation\n    function calculateAllocation()\n    public\n    returns(uint256)\n    {\n\n        //Setting Round\n        uint256 Exp = 3;\n        uint256 strt = 1;\n        uint256 token_const = 3;\n        uint256 InitialAllocation = 60;\n\n        round_.Exp = Exp;\n        round_.strt = strt;\n        round_.token_const = token_const;\n        round_.InitialAllocation = InitialAllocation;\n\n        // grab time\n        uint256 _now = now;\n\n        //Calcuate time differences\n        uint256 timediff = _now - round_.strt;\n\n        //Decay Rate\n        round_.token_decay = (timediff ** round_.Exp) / round_.token_const;\n\n        //Calculate Cap_\n        round_.allocation = (round_.InitialAllocation * (1+timediff) / (1+timediff+round_.token_decay)) * 100;\n\n        return(round_.allocation);\n    }\n\n    /**\n     * @dev calculate Cap Decay\n     * @return Cap\n     */\n\n    function calculateCapDecay()\n    public\n    returns(uint256)\n    {\n\n        //Setting Round\n        uint256 Exp_DR = 3;\n        uint256 strt = 1;\n        uint256 Cap_Const = 3;\n        uint256 InitialCap = 100000;\n\n        round_.Exp_DR = Exp_DR;\n        round_.strt = strt;\n        round_.Cap_Const = Cap_Const;\n        round_.InitialCap = InitialCap;\n\n        // grab time\n        uint256 _now = now;\n\n        //Calcuate time differences\n        uint256 timediff = _now - round_.strt;\n\n        //Decay Rate\n        round_.DecayRate = (timediff ** round_.Exp_DR) / round_.Cap_Const;\n\n        //Calculate Cap\n        uint256 den = 1;\n        uint256 num = 10;\n\n        round_.Cap = (round_.InitialCap.mul(1+timediff).div(1+timediff.add(round_.DecayRate))).add((den).div(num));\n\n        return(round_.DecayRate);\n    }\n\n    /*\n     * @dev checks to make sure user picked a valid team.  if not sets team \n     * to default (sneks)\n     */\n\n    function verifyappraisal(uint256 _appraisal)\n        public\n        pure\n        returns (uint256)\n    {\n        if (_appraisal < 0 || _appraisal > 3)\n            return(2);\n        else\n            return(_appraisal);\n    }\n\n    /**\n     * @dev calculates unmasked earnings (just calculates, does not update mask)\n     * @return earnings in wei format\n     */\n\n    function calcUnMaskedEarnings()\n        public\n        view\n        returns(uint)\n    {   \n        round_.mask = 100;\n        PR.shares = 2;\n        PR.mask = 10;\n\n        return(round_.mask.mul(PR.shares).mul(5).mul(1000000000000000000).div(2000000000000000000));\n    }\n\n    /*\n     * @dev moves any unmasked earnings to gen vault.  updates earnings mask\n     */\n    function updateDividend(uint256 _pID)\n        private \n    {\n        uint256 _earnings = calcUnMaskedEarnings();\n\n        if (_earnings > 0)\n        {\n            // put in gen vault\n            plyr_.gen = _earnings + (plyr_.gen);\n            // zero out their earnings by updating mask\n            PR.mask = _earnings + (PR.mask);\n        }\n    }\n\n    function getPlayerSharesHelper()\n        public\n        view\n        returns(uint256)\n    {\n\n        round_.mask = 100;\n        round_.pot = 10000;\n        round_.shares = 1000;\n        uint256 TotalPot_ = 1000000;\n        PR.shares = 2;\n        PR.mask = 10;\n\n        return(  ((((round_.mask).add(((((round_.pot).mul(TotalPot_)) / 100).mul(1000000000000000000)) / (round_.shares))).mul(PR.shares)) / 1000000000000000000));\n    }\n\n\n//==============================================================================\n//     _  _ _|__|_ _  _ _  .\n//    (_|(/_ |  | (/_| _\\  . (for UI & viewing things on etherscan)\n//=====_|=======================================================================\n    \n    /**\n     * @dev return the price buyer will pay for next 1 individual key.\n     * -functionhash- 0x018a25e8\n     * @return price for next key bought (in wei format)\n     */\n    function getBuyPrice()\n        public \n        view \n        returns(uint256)\n    {  \n        \n        round_.strt = 0;\n        round_.end = 100000000000;\n        round_.plyr = 1;\n\n        // grab time\n        uint256 _now = now;\n        \n        // are we in a round?\n        if (_now > round_.strt && (_now <= round_.end || (_now > round_.end && round_.plyr == 0)))\n            return ( (round_.shares.add(1000000000000000000)));\n        else // rounds over.  need price for new round\n            return ( 75000000000000 ); // init\n    }\n}\n\n//==============================================================================\n//   __|_ _    __|_ _  .\n//  _\\ | | |_|(_ | _\\  .\n//==============================================================================\n\nlibrary ArtXdatasets {\n    \n    struct EventReturns {\n        uint256 compressedData;\n        uint256 compressedIDs;\n        address winnerAddr;         // winner address\n        bytes32 winnerName;         // winner name\n        uint256 amountWon;          // amount won\n        uint256 newPot;             // amount in new pot\n        uint256 genAmount;          // amount distributed to gen\n        uint256 potAmount;          // amount added to pot\n    }\n\n    struct Player {\n        address addr;   // player address\n        bytes32 name;   // player name\n        uint256 win;    // winnings vault\n        uint256 gen;    // general vault\n        uint256 aff;    // affiliate vault\n        uint256 lrnd;   // last round played\n        uint256 laff;   // last affiliate id used\n    }\n\n    struct PlayerRounds {\n        uint256 eth;    // eth player has added to round (used for eth limiter)\n        uint256 shares; // shares\n        uint256 mask;   // player mask \n        uint256 ico;    // ICO phase investment\n    }\n\n    struct Round {\n        uint256 plyr;   // pID of player in lead\n        uint256 team;   // tID of team in lead\n        uint256 end;    // time ends/ended\n        bool ended;     // has round end function been ran\n        uint256 strt;   // time round started\n        uint256 shares; // shares\n        uint256 eth;    // total eth in\n        uint256 pot;    // eth to pot (during round) / final amount paid to winner (after round ends)\n        uint256 mask;   // global mask\n        uint256 ico;    // total eth sent in during ICO phase\n        uint256 icoGen; // total eth for gen during ICO phase\n        uint256 icoAvg; // average key price for ICO phase\n\n        //Allocation Elements\n        uint256 Exp; //Exponential Decay\n        uint256 token_const; //Token Constant\n        uint256 InitialAllocation; //Initial Allocation\n        uint256 allocation; //Allocation\n        uint256 token_decay; //Token Decay\n\n        //Decay Rates\n        uint256 Exp_DR; //Exponential Decay\n        uint256 DecayRate; //Decay Rate\n        uint256 InitialCap; //Initial Cap\n        uint256 Cap_Const; //Cap Constant\n        uint256 Cap; //Cap\n    }\n\n    struct Fee {\n        uint256 gen;    // % of buy in thats paid to key holders of current round\n    }\n}\n",
  "sourcePath": "/Users/clement_chan_pig/Documents/Art_Crypto_Currency_Project/ArtX/contracts/TestCrowdsale.sol",
  "compiler": {
    "name": "solc",
    "version": "0.4.24+commit.e67f0147.Emscripten.clang"
  },
  "schemaVersion": "2.0.1",
  "updatedAt": "2018-09-28T14:53:24.425Z"
}