{
  "contractName": "Time",
  "abi": [
    {
      "constant": true,
      "inputs": [],
      "name": "name",
      "outputs": [
        {
          "name": "",
          "type": "string"
        }
      ],
      "payable": false,
      "stateMutability": "view",
      "type": "function"
    },
    {
      "constant": true,
      "inputs": [
        {
          "name": "",
          "type": "address"
        }
      ],
      "name": "pIDxAddr_",
      "outputs": [
        {
          "name": "",
          "type": "uint256"
        }
      ],
      "payable": false,
      "stateMutability": "view",
      "type": "function"
    },
    {
      "constant": true,
      "inputs": [],
      "name": "airDropTracker_",
      "outputs": [
        {
          "name": "",
          "type": "uint256"
        }
      ],
      "payable": false,
      "stateMutability": "view",
      "type": "function"
    },
    {
      "constant": true,
      "inputs": [
        {
          "name": "",
          "type": "uint256"
        },
        {
          "name": "",
          "type": "bytes32"
        }
      ],
      "name": "plyrNames_",
      "outputs": [
        {
          "name": "",
          "type": "bool"
        }
      ],
      "payable": false,
      "stateMutability": "view",
      "type": "function"
    },
    {
      "constant": true,
      "inputs": [
        {
          "name": "",
          "type": "bytes32"
        }
      ],
      "name": "pIDxName_",
      "outputs": [
        {
          "name": "",
          "type": "uint256"
        }
      ],
      "payable": false,
      "stateMutability": "view",
      "type": "function"
    },
    {
      "constant": true,
      "inputs": [
        {
          "name": "",
          "type": "uint256"
        },
        {
          "name": "",
          "type": "uint256"
        }
      ],
      "name": "rndTmEth_",
      "outputs": [
        {
          "name": "",
          "type": "uint256"
        }
      ],
      "payable": false,
      "stateMutability": "view",
      "type": "function"
    },
    {
      "constant": true,
      "inputs": [],
      "name": "rID_",
      "outputs": [
        {
          "name": "",
          "type": "uint256"
        }
      ],
      "payable": false,
      "stateMutability": "view",
      "type": "function"
    },
    {
      "constant": true,
      "inputs": [],
      "name": "symbol",
      "outputs": [
        {
          "name": "",
          "type": "string"
        }
      ],
      "payable": false,
      "stateMutability": "view",
      "type": "function"
    },
    {
      "constant": true,
      "inputs": [],
      "name": "airDropPot_",
      "outputs": [
        {
          "name": "",
          "type": "uint256"
        }
      ],
      "payable": false,
      "stateMutability": "view",
      "type": "function"
    },
    {
      "constant": true,
      "inputs": [],
      "name": "getTimeLeft",
      "outputs": [
        {
          "name": "",
          "type": "uint256"
        }
      ],
      "payable": false,
      "stateMutability": "view",
      "type": "function"
    }
  ],
  "bytecode": "0x6080604052600060015534801561001557600080fd5b506104f0806100256000396000f3006080604052600436106100a4576000357c0100000000000000000000000000000000000000000000000000000000900463ffffffff16806306fdde03146100a957806310f01eba1461013957806311a09ae7146101905780632660316e146101bb5780632e19ebdc1461020e5780635893d48114610253578063624ae5c01461029e57806395d89b41146102c9578063c7e284b814610359578063d87574e014610384575b600080fd5b3480156100b557600080fd5b506100be6103af565b6040518080602001828103825283818151815260200191508051906020019080838360005b838110156100fe5780820151818401526020810190506100e3565b50505050905090810190601f16801561012b5780820380516001836020036101000a031916815260200191505b509250505060405180910390f35b34801561014557600080fd5b5061017a600480360381019080803573ffffffffffffffffffffffffffffffffffffffff1690602001909291905050506103e8565b6040518082815260200191505060405180910390f35b34801561019c57600080fd5b506101a5610400565b6040518082815260200191505060405180910390f35b3480156101c757600080fd5b506101f4600480360381019080803590602001909291908035600019169060200190929190505050610406565b604051808215151515815260200191505060405180910390f35b34801561021a57600080fd5b5061023d6004803603810190808035600019169060200190929190505050610435565b6040518082815260200191505060405180910390f35b34801561025f57600080fd5b50610288600480360381019080803590602001909291908035906020019092919050505061044d565b6040518082815260200191505060405180910390f35b3480156102aa57600080fd5b506102b3610472565b6040518082815260200191505060405180910390f35b3480156102d557600080fd5b506102de610478565b6040518080602001828103825283818151815260200191508051906020019080838360005b8381101561031e578082015181840152602081019050610303565b50505050905090810190601f16801561034b5780820380516001836020036101000a031916815260200191505b509250505060405180910390f35b34801561036557600080fd5b5061036e6104b1565b6040518082815260200191505060405180910390f35b34801561039057600080fd5b506103996104be565b6040518082815260200191505060405180910390f35b6040805190810160405280601481526020017f466f4d6f3344204c6f6e67204f6666696369616c00000000000000000000000081525081565b60036020528060005260406000206000915090505481565b60015481565b60056020528160005260406000206020528060005260406000206000915091509054906101000a900460ff1681565b60046020528060005260406000206000915090505481565b6006602052816000526040600020602052806000526040600020600091509150505481565b60025481565b6040805190810160405280600381526020017f463344000000000000000000000000000000000000000000000000000000000081525081565b6000804290508091505090565b600054815600a165627a7a723058203d12a436582e4c1d233e6891a5908c728572c69ecf447641ee9e36cb761caa430029",
  "source": "pragma solidity 0.4.24;\n\nimport './ArtXCoin.sol';\nimport 'zeppelin-solidity/contracts/crowdsale/emission/MintedCrowdsale.sol';\nimport 'zeppelin-solidity/contracts/crowdsale/validation/TimedCrowdsale.sol';\n\ncontract ArtXCoinCrowdsale is TimedCrowdsale, MintedCrowdsale {\n    function ArtXCoinCrowdsale\n        (\n            uint256 _openingTime,\n            uint256 _closingTime,\n            uint256 _rate,\n            address _wallet,\n            MintableToken _token\n        )\n        public\n        Crowdsale(_rate, _wallet, _token)\n        TimedCrowdsale(_openingTime, _closingTime) {\n\n        }\n}\n\ncontract Time {\n    \n//==============================================================================\n//     _ _  _  |`. _     _ _ |_ | _  _  .\n//    (_(_)| |~|~|(_||_|| (_||_)|(/__\\  .  (game settings)\n//=================_|===========================================================\n    string constant public name = \"FoMo3D Long Official\";\n    string constant public symbol = \"F3D\";\n    uint256 constant private rndInit_ = 1 hours;                // round timer starts at this\n    uint256 constant private rndInc_ = 30 seconds;              // every full key purchased adds this much to the timer\n    uint256 constant private rndMax_ = 24 hours;                // max length a round timer can be\n//==============================================================================\n//     _| _ _|_ _    _ _ _|_    _   .\n//    (_|(_| | (_|  _\\(/_ | |_||_)  .  (data used to store game info that changes)\n//=============================|================================================\n    uint256 public airDropPot_;             // person who gets the airdrop wins part of this pot\n    uint256 public airDropTracker_ = 0;     // incremented each time a \"qualified\" tx occurs.  used to determine winning air drop\n    uint256 public rID_;    // round id number / total rounds that have happened\n//****************\n// PLAYER DATA \n//****************\n    mapping (address => uint256) public pIDxAddr_;          // (addr => pID) returns player id by address\n    mapping (bytes32 => uint256) public pIDxName_;          // (name => pID) returns player id by name\n    mapping (uint256 => mapping (bytes32 => bool)) public plyrNames_; // (pID => name => bool) list of names a player owns.  (used so you can change your display name amongst any name you own)\n//****************\n// ROUND DATA \n//****************\n    mapping (uint256 => mapping(uint256 => uint256)) public rndTmEth_;      // (rID => tID => data) eth in per team, by round id and team id\n\n    function getTimeLeft()\n    public\n    view\n    returns(uint256)\n    {   \n        // grab time\n        uint256 _now = now;\n        return(_now);\n    }\n}\n",
  "sourcePath": "/Users/clement_chan_pig/Documents/Art_Crypto_Currency_Project/ArtX/contracts/ArtXCoinCrowdSale.sol",
  "compiler": {
    "name": "solc",
    "version": "0.4.24+commit.e67f0147.Emscripten.clang"
  },
  "schemaVersion": "2.0.1",
  "updatedAt": "2018-08-21T00:52:26.582Z"
}